:1000000003C1000032C1000030C100002EC1000059
:100010002CC100002AC1000028C1000026C1000038
:1000200024C100000C94CD1C0C94CD1C0C94CD1C50
:100030001CC100001AC1000018C1000016C1000058
:1000400014C1000012C1000010C100000EC1000068
:100050000CC100000AC1000008C100000C945F1B25
:1000600004C100000C94351B0C940B1BFEC0000057
:10007000FCC00000FAC00000F8C00000F6C000009C
:10008000F4C00000F2C00000F0C00000EEC00000AC
:100090000C94E11A0C94B71AE8C000000C94A91B48
:1000A000E4C00000E2C00000E0C00000DEC00000CC
:1000B000DCC00000DAC00000D8C00000D6C00000DC
:1000C000D4C00000D2C00000D0C000000C948D1A33
:1000D0000C94631ACAC000000C94391A0C940F1ABD
:1000E000C4C0000000002100240027002A002D00C9
:1000F0003000330001010000040107010A01000083
:100100002200250028002B002E00310034000201BF
:100110000000050108010B0100002000230026005B
:1001200029002C002F00320000010000030106010D
:10013000090105050505070508080808020202026D
:100140000A0A080804040404010101010101010173
:100150000303030303030303040707070C0C0C0C3E
:100160000C0C0C0C02020202060606060606060627
:100170000B0B0B0B0B0B0B0B0102102020080810B4
:100180002040102040800201020108040201010207
:1001900004081020408080402010080402018004E0
:1001A000020180402010080402010804020101023B
:1001B0000408102040800102040810204080000044
:1001C0000A0B02090C0D0E080703040100000000D1
:1001D000000000000000000000000000000000001F
:1001E00000000000000000000000121110000000DC
:1001F00000000000000000000000000000000000FF
:1002000000000000EE1C352811241FBECFEFD1E204
:10021000DEBFCDBF00E00CBF12E0A0E0B2E0E4E83A
:10022000F7E500E00BBF02C007900D92AE3FB107AB
:10023000D9F728E0AEEFB2E001C01D92A033B207BB
:10024000E1F711E0C3E0D1E000E006C02197010929
:10025000802FFE010E947B2AC230D10780E0080770
:10026000A9F70E94BF1D0C94B12BCACE0895089522
:10027000982F2091E20481E0213208F043C0809160
:10028000E1048111FCCF8091DA0432E03093E10483
:100290009093E0049FEF9093B8041092B7042093DA
:1002A000B604AAEBB4E0E6E9F4E090E0291331C02B
:1002B0001092950490919504880F892B8093950452
:1002C0008091DF04813049F51092DF04809195041C
:1002D0008093BB008091BC0083FDF8CF85EC8093B8
:1002E000BC008091E1048230E1F38091B8048F3F3B
:1002F000B1F08091B8048032A1F08091B8048033CD
:1003000091F084E01092E3041092E2041092B90498
:1003100008953D9131939F5FC9CF85EEE0CF80E096
:10032000F1CF82E0EFCF83E0EDCF81E0A1CF91E08C
:100330009093B9048093DA041092E3041092E204DB
:1003400008959091E1049111FCCF91E09093E10424
:100350009093E0042FEF2093B8041092B704260F77
:100360002093B6049093950490919504880F892B5F
:10037000809395048091DF048130F9F41092DF04BA
:10038000809195048093BB008091BC0083FDF8CFE1
:1003900085EC8093BC008091E1048130E1F3809191
:1003A000B704861710F46091B704A6E9B4E0E5E756
:1003B000F4E080E0861303C0089585EEEACF9D91B6
:1003C00091938F5FF7CFCF92DF92EF92FF92CF930F
:1003D000DF93EC016A017B01E889F98982E080837F
:1003E000C11481EED806E104F104A1F060E079E0E7
:1003F0008DE390E0A70196010E943A28215031092F
:10040000410951095695479537952795211580E162
:10041000380798F0E889F989108260E874E88EE17D
:1004200090E0A70196010E943A2821503109410924
:1004300051095695479537952795EC85FD8530836D
:10044000EE85FF852083188EEC89FD8986E0808308
:10045000EA89FB89808180618083EA89FB898081C8
:1004600088608083EA89FB89808180688083EA894B
:10047000FB8980818F7D8083DF91CF91FF90EF900A
:10048000DF90CF900895CF93DF93EC018D81823080
:1004900009F441C0833009F441C0813009F041C002
:1004A00080E296E09983888340E052EC61E070E05E
:1004B0008881998188DF8E81823078F08091040173
:1004C000806680930401809105018F7B80930501F4
:1004D000809105018F7D8093050188819981DC01E0
:1004E000ED91FC910284F385E02D199597FFF5CFEE
:1004F000FE01E75BFF4F1082319610823796118222
:100500001082329711821082C35BDF4F19821882EA
:10051000DF91CF91089583E895E0C4CF86EE94E013
:10052000C1CF8DEB96E0BECFAF92BF92CF92DF925C
:10053000EF92FF920F931F93CF93DF936C017B0198
:100540008B01040F151FEB015E01AE18BF08C01729
:10055000D10759F06991D601ED91FC910190F0819C
:10056000E02DC6011995892B79F7C501DF91CF914F
:100570001F910F91FF90EF90DF90CF90BF90AF90C1
:100580000895FC01A089B1898C91A689B78982FD63
:100590000FC09C91818D8F5F8F73228D821749F0E0
:1005A000A18DAE0FBF2FB11D5D969C93818F0895D5
:1005B0008C910895FC01538D448D252F30E0842FBC
:1005C00090E0821B930B541710F0CF96089501977B
:1005D0000895FC01918D828D981761F0A28DAE0F68
:1005E000BF2FB11D5D968C91928D9F5F9F73928FEF
:1005F00090E008958FEF9FEF0895FC01918D828D1B
:10060000981731F0828DE80FF11D858D90E00895E7
:100610008FEF9FEF0895FC01918D228D892F90E03F
:10062000805C9F4F821B91098F739927089586EEF6
:1006300094E0F1DF21E0892B09F420E0822F089576
:1006400083E895E0E8DF21E0892B09F420E0822FA0
:10065000089580E296E0DFDF21E0892B09F420E0B5
:10066000822F08958DEB96E0D6DF21E0892B09F4E7
:1006700020E0822F0895FC01A48DA80FB92FB11D91
:10068000A35ABF4F2C91848D90E001968F739927C8
:10069000848FA689B7892C93A089B1898C918370A6
:1006A00080648C93938D848D981306C00288F3899F
:1006B000E02D80818F7D80830895EF92FF920F93CC
:1006C0001F93CF93DF93EC0181E0888F9B8D8C8DFE
:1006D00098131AC0E889F989808185FF15C09FB7F2
:1006E000F894EE89FF896083E889F98980818370B5
:1006F000806480839FBF81E090E0DF91CF911F9164
:100700000F91FF90EF900895F62E0B8D10E00F5F84
:100710001F4F0F731127E02E8C8D8E110BC00FB65B
:1007200007FCFACFE889F989808185FFF5CFCE01F2
:10073000A2DFF2CFEB8DEC0FFD2FF11DE35AFF4F3F
:10074000F0829FB7F8940B8FEA89FB8980818062E1
:10075000D0CFCF93DF93EC01888D8823B1F0AA89A5
:10076000BB89E889F9898C9185FD03C0808186FD6C
:100770000CC00FB607FCF7CF8C9185FFF2CF8081BC
:1007800085FFEDCFCE0177DFEACFDF91CF910895DE
:1007900080E090E0892B21F065DF81110E9400004C
:1007A00080E090E0892B21F054DF81110E9400004D
:1007B00080E090E0892B21F043DF81110E9400004E
:1007C00080E090E0892B21F032DF81110C94000051
:1007D00008958150823108F05AC0E82FF0E0882750
:1007E000EB50FC4F8F4F0C947B2A1504190407041F
:1007F0000D04110447041C04220426042C043004B4
:1008000034043A043E044704420448044C048091F2
:1008100080008F77809380000895809180008F7D85
:10082000F9CF80918000877FF5CF84B58F7784BD25
:10083000089584B58F7DFBCF8091B0008F77809332
:10084000B00008958091B0008F7DF9CF8091900025
:100850008F77809390000895809190008F7DF9CFDD
:1008600080919000877FF5CF8091A0008F77809353
:10087000A00008958091A0008F7DF9CF8091A00005
:10088000877FF5CF809120018F7780932001089595
:10089000809120018F7DF9CF80912001877FF5CF56
:1008A000CF93DF93282F30E0F901E254FE4F84917B
:1008B000F901E858FE4FD491F901EE5CFE4FC49166
:1008C000CC2399F0811185DFEC2FF0E0EE0FFF1FB4
:1008D000E85EFE4FA591B491EC91ED2381E090E0AC
:1008E00009F480E0DF91CF91089580E090E0FACFA5
:1008F0001F93CF93DF93282F30E0F901E254FE4F8E
:100900008491F901E858FE4FD491F901EE5CFE4F55
:10091000C491CC23A1F0162F81115BDFEC2FF0E006
:10092000EE0FFF1FE250FF4FA591B4918FB7F894DF
:10093000EC91111108C0D095DE23DC938FBFDF91BD
:10094000CF911F910895DE2BF8CF1092E5041092FD
:10095000E4041092E3041092E2041092E10481E0B6
:100960008093E0041092DF0461E084E1C1DF61E084
:1009700085E1BEDFE9EBF0E080818E7F80838081BE
:100980008D7F808388E48093B80085E48093BC00E9
:1009900086E391E09093DE048093DD0487E391E0A9
:1009A0009093DC048093DB040895CF93DF9390E071
:1009B000FC01E858FE4F24918E5C9E4FFC0184910F
:1009C0008823D1F090E0880F991FFC01EC51FF4F74
:1009D000A591B491FC01E250FF4FC591D4916111F2
:1009E0000EC09FB7F8948C91E22FE0958E238C93E4
:1009F0002881E223E8839FBFDF91CF9108958FB7CD
:100A0000F894EC91E22BEC938FBFF6CF3FB7F894BC
:100A100080914F0390915003A0915103B0915203E4
:100A200026B5A89B05C02F3F19F00196A11DB11D49
:100A30003FBFBA2FA92F982F8827BC01CD01620F85
:100A4000711D811D911D42E0660F771F881F991F40
:100A50004A95D1F708958F929F92AF92BF92CF920D
:100A6000DF92EF92FF926B017C01D0DF4B015C01C2
:100A7000C114D104E104F104B1F0C8DF68197909A7
:100A80008A099B09683E73408105910588F321E03E
:100A9000C21AD108E108F10888EE880E83E0981E9A
:100AA000A11CB11CE5CFFF90EF90DF90CF90BF90DD
:100AB000AF909F908F9008952FB7F89460914B035B
:100AC00070914C0380914D0390914E032FBF089578
:100AD00085ED8093BC008091BC0084FDFCCF10921A
:100AE000E104089520912703260F3327331F213275
:100AF0003105ECF42091E104FC0190E080E0243029
:100B000069F082E00895A09127032191AC01495F2B
:100B10005C4FA40FB52FB11D2C930196861798F347
:100B200080912703680F6093270380E0089581E098
:100B300008950895E091E5048091E404E81730F405
:100B4000F0E0EB58FB4F808190E008958FEF9FEF2E
:100B500008959091E5048091E4042FEF3FEF9817FA
:100B600048F4E92FF0E0EB58FB4F208130E09F5F25
:100B70009093E504C90108958091E4049091E504FF
:100B8000891B990B0895CF92DF92EF92FF920F93FA
:100B90001F93CF93DF937C01CB018A012091B9048D
:100BA000222389F0EB016B01C40ED51ECC15DD05A7
:100BB00061F06991D701ED91FC910190F081E02DF8
:100BC000C7011995F3CF642F8DDFC801DF91CF9155
:100BD0001F910F91FF90EF90DF90CF900895CF93EA
:100BE000DF931F92CDB7DEB769832091B90422232A
:100BF000F9F02091E204203258F021E030E0FC01CD
:100C00003383228390E080E00F90DF91CF910895AD
:100C10008091E304E82FF0E0E654FB4F9981908344
:100C20008F5F8093E3048093E20481E090E0ECCF57
:100C300061E0CE01019656DFF8CFCF93DF93EB0151
:100C400076DB61E08AE597E0CADF6D2F8AE597E001
:100C5000C6DF6C2F8AE597E0C2DFDF91CF9165CBCD
:100C6000682F8AE597E0BBCF1F93CF93DF93EC010A
:100C7000162F80916E075BDB8D2F90E0F1DFCE01A8
:100C80009927EEDF612F8AE597E0A9DFDF91CF9109
:100C90001F914BCB682F8AE597E0A1CF4F925F92CF
:100CA0006F927F928F929F92AF92BF92CF92DF927C
:100CB000EF92FF920F931F93CF93DF9300D000D05A
:100CC00000D01F92CDB7DEB79A8789872A013B01F2
:100CD00009831A832B833C83DC015B96BC92AE9222
:100CE0005A9781E0AA94AB2809F080E0E985FA855B
:100CF00083AF408251826282738289819A81AB8103
:100D0000BC8184839583A683B783C086D186E2861F
:100D1000F38666A577A580A991A90E945E2920E0A7
:100D200030E04AE754E40E94C5286D837E838F83B8
:100D30009887E985FA8544865586668677869B017D
:100D4000AC0169817A818B819C810E94142A4B01BC
:100D50005C01A985BA8550968D929D92AD92BC9208
:100D600053972D813E814F815885C701B6010E945E
:100D7000C5286B017C01E985FA85C48AD58AE68A93
:100D8000F78A808D918D019759F5A301920160E05A
:100D900070E0CB010E945C28A985BA851C966D93F2
:100DA0007D938D939C931F97A501940160E070E063
:100DB000CB010E945C28E985FA85608B718B828B60
:100DC000938BA701960160E070E0CB010E945C2844
:100DD000A985BA8554966D937D938D939C9357976F
:100DE0002A960FB6F894DEBF0FBECDBFDF91CF912C
:100DF0001F910F91FF90EF90DF90CF90BF90AF9039
:100E00009F908F907F906F905F904F9008952F925A
:100E10003F924F925F926F927F928F929F92AF928A
:100E2000BF92CF92DF92EF92FF920F931F93CF93D7
:100E3000DF93EC016A017B0148015901A901980186
:100E4000CB01B6010E94102A87FF4FC0CAAADBAAB5
:100E5000ECAAFDAA8EAA9FAAA8AEB9AE8AAD882335
:100E600009F443C02E8C3F8CF10140805180628098
:100E70007380A3019201C501B8010E94C12887FFB8
:100E80001AC0F10180829182A282B3828EA09FA0BB
:100E9000A8A4B9A4CEA8DFA8E8ACF9ACA701960134
:100EA000C501B4010E94102A18169CF4CEA2DFA23C
:100EB000E8A6F9A61AC0A3019201C701B6010E94D3
:100EC000102A18161CF7F101C082D182E282F38247
:100ED000DDCFCAA8DBA8ECA8FDA8A7019601C50133
:100EE000B4010E94C12887FDE1CFDF91CF911F910E
:100EF0000F91FF90EF90DF90CF90BF90AF909F90B9
:100F00008F907F906F905F904F903F902F900895BB
:100F100090E080E00895CF93C62FFC01618380812B
:100F200006DA81E090E002C0880F991FCA95E2F7C7
:100F3000B1DECF91FAC9FF920F931F93CF93DF9346
:100F40008C01C62FF42ED52F8091B800F801818333
:100F50008CE08093B8006430E0F480E68083F80190
:100F60008081E5D98C2F90E0880F991F806492DEF4
:100F70008D2F90E075DE8F2D9D2F72DED6D9F80172
:100F800081818093B800DF91CF911F910F91FF90E5
:100F9000089581E68083C450E2CF38DD0E945E2947
:100FA00020E034E244E759E40C94C5288F929F92E4
:100FB000AF92BF92CF92DF92EF92FF920F931F9367
:100FC000CF93DF93FC01E351FF4F20818C0101514E
:100FD0001F4F222391F0F801108211821282138296
:100FE000DF91CF911F910F91FF90EF90DF90CF9005
:100FF000BF90AF909F908F9008956A017B01EC01A4
:10100000F80180809180A280B380AB019601C50178
:10101000B4010E94C128882339F0FE01E855FF4F32
:1010200080829182A282B382CC55DF4F88809980E2
:10103000AA80BB80A7019601C501B4010E94C12806
:1010400087FF06C0F80180829182A282B382C8CF56
:1010500020E030E0A901C701B6010E94C12887FD48
:10106000BACFF801C082D182E282F382B9CFFC010B
:1010700080815DD990E080E00DDE57C9FC01399692
:1010800020E08FEF9FEF261791F03191832738E012
:10109000AC014170552796958795452B21F041E08D
:1010A000842740EA9427315099F72F5FECCF982797
:1010B000892798270895EF92FF921F93CF93DF938C
:1010C000EC017C0189E4E80EF11CD7011C91612F31
:1010D000CE01D4DFFE01E10FF11D9187E1E0E10FC8
:1010E000EC0FFD2FF11D81871E5FF70110838E81AC
:1010F0008230C8F08D81823009F472C0833009F4E7
:1011000075C0813009F078C08091C80080648093F8
:10111000C8008091050180648093050180910501DC
:10112000806280930501D7014C9150E0BE01675F5A
:101130007F4F8D81843008F065C088819981DC0102
:10114000ED91FC910280F381E02D19958E81823022
:10115000C0F08D81823009F458C0833009F45AC040
:10116000813009F05CC08091C80086FFFCCF80917F
:1011700005018F7B80930501809105018F7D809310
:1011800005018D81843008F04FC088819981DC0190
:10119000ED91FC910284F385E02D199597FFF5CF31
:1011A000F701108289DCFE01E75AFF4FDE01AD5ADC
:1011B000BF4F2D913C91620F731F811D911D608364
:1011C000718382839383C15BDF4F8881998101960C
:1011D00099838883DF91CF911F91FF90EF900895BD
:1011E0008091D00080648093D00093CF80913001B3
:1011F0008064809330018DCF8091C00080648093A3
:10120000C00087CF8A819B819ACF8091D00086FFD2
:10121000FCCFADCF8091300186FFFCCFA8CF80916D
:10122000C00086FFFCCFA3CF8A819B81DC01ED91BA
:10123000FC910284F385E02D199597FFF5CFB0CF8F
:101240004F925F926F927F928F929F92AF92BF92D6
:10125000CF92DF92EF92FF920F931F93CF93DF9382
:10126000EC01FC01E55BFF4F83E693E09183808313
:101270006E012DE5C20ED11C89E8D6018C938D81BB
:101280008430F0F488819981DC01ED91FC91008437
:10129000F185E02D1995811116C0F12C8F2DDF916C
:1012A000CF911F910F91FF90EF90DF90CF90BF9063
:1012B000AF909F908F907F906F905F904F90089528
:1012C0008A819B81E1CF8E01065B1F4FF8019081DF
:1012D0009E012B5A3F4F7901891769F08083ECDB1F
:1012E0006B5F7F4F8F4F9F4FD7016D937D938D9392
:1012F0009C931397D2CFE0DBF70180809180A2808E
:10130000B380681579058A059B0538F2D8011C92CF
:101310008E81823050F0809105018F7B8093050192
:10132000809105018F7D809305018E01075B1F4F22
:10133000F80110828D81F12C843020F18A819B810B
:10134000DC01ED91FC910084F185E02D1995892B4C
:10135000C9F18A819B81DC01ED91FC910284F385C6
:10136000E02D1995F8019081FE01E90FF11D8187AB
:101370009F5FD8019C93903408F3FF24F394DECF51
:10138000FF24F39488819981DC01ED91FC91008424
:10139000F185E02D1995892BA9F088819981DC01CF
:1013A000ED91FC910284F385E02D1995F80190816F
:1013B000FE01E90FF11D81879F5FD8019C93903456
:1013C000F8F6E0CFFE01E35BFF4F8081918101964B
:1013D00091838083FF2059F034968081918101961A
:1013E000918380838DEF8887BDEFFB2E57CFF80167
:1013F000F080F886F6E0FF150CF050CF99858C81CF
:1014000098134BCFAF2CB12C6EEF6F0DCE0136DEA3
:10141000F501EC0FFD1F2781308523273227232775
:101420002817390761F0FE01EF5AFF4F8081918143
:10143000019691838083FF24FA94F8862FCF2A8522
:10144000E6E8F2E08191821709F4D3C132E0EE3888
:10145000F307C1F7FE01EF5AFF4F8081918101969A
:1014600091838083FF24F39420582A87FB8683E0AE
:10147000D8018C93CE011FDEE0CF8B859C85982709
:1014800089279827AC01F4E056954795FA95E1F73E
:101490008D859E85982789279827A4E0969587951E
:1014A000AA95E1F7840F951FD6019C91981710F526
:1014B00082E0F82ED9CF8B859C859827892798279D
:1014C000E4E096958795EA95E1F7F6019081EECFF5
:1014D0008B859C8598278927E7CF8D859E859827C2
:1014E000892798274B855C85542745275427840FE7
:1014F000951FEBCFE1DAFE01E75AFF4FDE01AD5A4F
:10150000BF4F2D913C91620F731F811D911D608310
:101510007183828393831886EA85E150E03108F075
:10152000BDCEF0E08827E856F54F8F4F0C947B2A0C
:10153000A80AA80A140B140B490B7B0B4E094E0981
:101540004E094E094E094E094E094E098C0BDA0B15
:101550008B859C859827892798276D847E8476249F
:1015600067247624A30173E0569547957A95E1F7B1
:10157000242F7301F7E0EF22FF24E114F10411F0AE
:1015800021E0240F2B8723E0D8012C93680E791ECD
:10159000D12C812C912C54018394F801C0806816C1
:1015A0007906B9F1B501A4010D2C04C0440F551FF3
:1015B000661F771F0A94D2F7DE01AC0DB11D199694
:1015C0005C901997FC0153E0F695E7955A95E1F781
:1015D000EE7FF170ED59FC4F20813181E82FEF70E3
:1015E00002C036952795EA95E2F720FF0DC0452900
:1015F00019964C93D394F7E0FD1520F4C394D801C9
:10160000CC92D12C0196C9CF4095542219965C9268
:10161000F1CFEF2811F0C394C082D801FC90F3946D
:10162000F394CE0148DD3ACE8B859C859827892797
:10163000982F2D853E8532272327322F330F3B8766
:1016400033E0F8013083280F3327331FD8016C9122
:1016500042E0F42EF60EA92FB0E0A217B3070CF764
:10166000AA0FBB1FAD59BC4FAE01460F511D1196BD
:101670008C911197FA01818781E0860FF8018083B0
:10168000FE01E80FF11D8C918187D801FC929F5FCC
:10169000DDCF8B859C85982789279827FC01B3E0AF
:1016A000F695E795BA95E1F7EE7FF170ED59FC4FAD
:1016B00020813181482F4F7081E090E0A0E0B0E0C0
:1016C00004C0880F991FAA1FBB1F4A95D2F74D85EA
:1016D0004F3F61F4822B932B9183808386E0F80146
:1016E0008083CE01E8DCE8E0FE2ED8CD8095909591
:1016F00082239323F1CFEC85F0E0EE0FFF1FED592D
:10170000FC4F8D859E859827892798279183808314
:1017100086E0D8018C93E5CF8B859C859827892717
:1017200098272D853E85322723273227280F391FFA
:10173000D12C67E0C62E812C912C5401839428175C
:10174000390761F2FC0153E0F695E7955A95E1F708
:10175000EE7FF170ED59FC4F482F4F702401350199
:1017600004C0440C551C661C771C4A95D2F7A20194
:10177000E080F180DE01AC0DB11D1996AC91B0E0B6
:101780000D2C02C0B595A7950A94E2F7A0FF0DC0F5
:101790004E295F2951834083D39447E0542E5D1432
:1017A00010F4C394D12C0196CACF409550954E2188
:1017B0005F21F0CFEC854E851D8686E0D8018C93A5
:1017C000DE01F0E0EE0FFF1FED59FC4F80E01296B6
:1017D000481761F01E962C911E971F969C911F979B
:1017E000322F292F219331938F5FF1CFF801F080B1
:1017F00016CFEFEFE20FE03108F07CCEF0E0882763
:10180000EB5FF34F8F4F0C947B2A3D0A3D0A6D0A24
:101810006D0A5B0A680A7A0A7A0A7A0A7A0A7A0AE6
:101820007A0A7A0A7A0A3D0A6D0A0F931F93CF93B8
:10183000DF938C01CEE6D7E088810E949701812F4B
:1018400090E00EDAC80199270BDA0E94950161E059
:1018500088810E94A1011092E5048093E4048AE546
:1018600097E077D9DF91CF911F910F9108950F9352
:101870001F93CF938C01D9DFC82FC8010196D5DF04
:1018800090E0982F88278C0F911D8F3F980711F4B7
:1018900090E080E0CF911F910F910895EF92FF9219
:1018A0000F931F93CF93DF9306E012E0D0E0C0E0E8
:1018B000D801ED91FD918D01EE0FFF1FED59FC4F09
:1018C000E080F180CE01D3DFE816F90639F06E2D05
:1018D000CE01CAD96F2DCE010196C6D92496C83F34
:1018E000D10531F7DF91CF911F910F91FF90EF90CC
:1018F00008958F929F92AF92BF92CF92DF92EF9214
:10190000FF920F931F93CF93DF9301E813E088EECC
:10191000882E83E0982E540188E1A80EB11C68013E
:10192000E401F601E190F1906F01CE01A0DFE8162D
:10193000F90639F06E2DCE0197D96F2DCE010196A3
:1019400093D92496CA15DB0561F7F8E18F1AFCEFED
:101950009F0A045F1F4F88E8881683E19806D9F62E
:10196000DF91CF911F910F91FF90EF90DF90CF907B
:10197000BF90AF909F908F900895CF93C82F0E94F3
:10198000970160E08AE597E02AD90E94950162E01C
:101990008C2F0E94A1011092E5048093E4048AE553
:1019A00097E0D7D8C82F8AE597E0D3D820E03C2F1E
:1019B000A901482BCA01CF9108952F923F924F92CF
:1019C0005F926F927F928F929F92AF92BF92CF92CF
:1019D000DF92EF92FF920F931F93CF93DF9300D08C
:1019E00000D0CDB7DEB7FC01E351FF4F20818C0161
:1019F00000551F4F222309F1F80110821182128233
:101A0000138260E070E0CB0126960FB6F894DEBF3B
:101A10000FBECDBFDF91CF911F910F91FF90EF903F
:101A2000DF90CF90BF90AF909F908F907F906F90FE
:101A30005F904F903F902F9008959E838D83FC017F
:101A4000E451FF4F8081882309F47AC135D8698336
:101A50007A838B839C83F801C080D180E280F380FD
:101A6000ED81FE81E659FF4F608171818281938112
:101A70009B01AC010E94142A4B015C0120E030E084
:101A800046E953E4C701B6010E945C2821E23AE826
:101A90004FE35EE30E94142A20E030E040ED52E480
:101AA0000E945D289B01AC01C501B4010E94C528BC
:101AB0004B015C0120E030EF4FE755E4ED81FE8102
:101AC000EC54FF4F60817181828193810E94C5280F
:101AD0009B01AC01C501B4010E94142A4B015C01B9
:101AE000ED81FE81E658FF4F208131814281538193
:101AF000ED81FE81EA58FF4F60817181828193817F
:101B00000E94142A2B013C01ED81FE81E657FF4F14
:101B10002081318142815381C701B6010E945C2836
:101B20009B01AC01C301B2010E94142A9B01AC01CC
:101B3000C501B4010E945C28ED81FE81EA57FF4F88
:101B400020813181428153810E94C5284B015C0173
:101B50006D807E80F8EB6F0E711CF30180819181A6
:101B600069817A81681B790B072E000C880B990B11
:101B70000E9460299B01AC01C501B4010E94142A96
:101B800020E030E04AE754E40E94C528A70196010E
:101B90000E945D28F80160837183828393830E9491
:101BA0005C05F3016083718382839383ED81FE8101
:101BB000E251FF4F8081882309F453C0F8018080EF
:101BC0009180A280B380ED80FE80F0EDEF0EF11CDD
:101BD00020E030E0A901F701608171818281938169
:101BE0000E94C128811105C0F70180829182A282E2
:101BF000B382ED81FE81EC52FF4F408051806280C4
:101C00007380A5019401C301B2010E94142A4B0103
:101C10005C01A301920160E070E080E89FE30E9414
:101C20005C282B013C01F7016081718182819381E5
:101C30002BE0C22ED12CA30192010E94142AA501EF
:101C400094010E945D28F1E0CF1AD108A1F7F701B5
:101C50006083718382839383F801608371838283BD
:101C600093830E945C05ED81FE81E856FF4F6083FF
:101C70007183828393832D803E80F4E92F0E311C83
:101C8000F101C080D180E280F3809B01AC012C196E
:101C90003D094E095F0969017A01ED81FE81E45633
:101CA000FF4F80819181A281B3818C159D05AE0586
:101CB000BF0508F03FC0F80180809180A280B3800A
:101CC0002D813E812A593F4F3A8329834D815E8180
:101CD00044555F4F5E834D83FA01208131814281FB
:101CE0005381C501B4010E945C282B013C01C7014E
:101CF000B6010E945E2920E030E04AE754E40E94E9
:101D0000C5289B01AC01C301B2010E94C528E9812D
:101D1000FA816083718382839383ED81FE81808267
:101D20009182A282B3820E945C05F101608371837B
:101D300082839383F801608171818281938164CE73
:101D4000ED80FE80F4E6EF0EF11CED81FE81E2579E
:101D5000FF4F0190F081E02DE031F10508F0A3C0C4
:101D60008827EA54F14F8F4F0C947B2AC60EC60E7B
:101D7000C60EC60E4D0F4D0F4D0F4D0F4F0F4F0F8F
:101D80004F0F4F0F510F510F510F510F60E0C7010F
:101D9000C2D8ED81FE8164857585636E7168818529
:101DA0000E941D068BEB92E10197F1F7ED81FE8118
:101DB0008185E3DDED81FE812385022E02C09695AB
:101DC00087950A94E2F7222329F08115F8E09F070E
:101DD00008F0906FED81FE81978B868B6485758509
:101DE000636E716B81850E941D068BEB92E10197FA
:101DF000F1F7ED81FE818185C0DDED81FE812385D6
:101E0000022E02C0969587950A94E2F7222329F0C4
:101E10008115F8E09F0708F0906FED81FE81918FAA
:101E2000808FBC01990F880B990B0E9460294B0190
:101E30005C01ED81FE8166897789072E000C880B95
:101E4000990B0E9460299B01AC01C501B4010E945D
:101E5000C528ED81FE8126853785408951890E94FC
:101E6000142AED81FE81E853FF4F208131814281A8
:101E700053810E94142AED81FE81E453FF4F20819B
:101E80003181428153810E945C28F8016083718313
:101E900082839383C701EBD889CE61E078CF62E07B
:101EA00076CF63E074CFC701E2D873CFCF93DF93CF
:101EB000D0E0C0E0E0916A07F0916B07EC0FFD1FE6
:101EC000808191817ADD2296C830D10599F7DF9122
:101ED000CF910895CF92DF92EF92FF921F93CF930D
:101EE000DF93D0E0C0E011E0E0916A07F0916B076A
:101EF000EC0FFD1F8081918160DD6B017C016091A1
:101F00003F047091400490E080E00E945E2920E050
:101F100030E040E251E40E94C5289B01AC01C701BA
:101F2000B6010E94C128881F8827881F182322967F
:101F3000C830D105C9F6812FDF91CF911F91FF9055
:101F4000EF90DF90CF9008952F923F924F925F9243
:101F50006F927F928F929F92AF92BF92CF92DF92B9
:101F6000EF92FF920F931F93CF93DF938091F9032A
:101F70009091FA03019709F0B1C08091FB03909111
:101F8000FC038130910509F4A9C0892B09F093C0A5
:101F900080916D0490916E04892B09F08CC0609142
:101FA00073047091740490E080E00E945E2920E048
:101FB00030E040E251E40E94C5282B013C01312C65
:101FC000212CE0916A07F0916B07C101880F991FDE
:101FD000E80FF91F00811181F801E055FF4F808063
:101FE0009180A280B380FF96C080D180E280F38090
:101FF000A7019601C301B2010E945D289B01AC01BB
:10200000C501B4010E94102AE801C855DF4F181617
:1020100064F0A7019601C501B4010E94C1281816F9
:1020200024F0C882D982EA82FB8288809980AA80C3
:10203000BB80A5019401C701B6010E94C128C82F29
:10204000CC1FCC27CC1FF801E451FF4F808188239F
:10205000B9F0A5019401C701B6010E94C128D801B9
:10206000AA58BF4FF80187FF5EC0EE58FF4F40816E
:102070005181628173814D935D936D937C9313972E
:102080006C2F82E02816310409F452C083E0281630
:10209000310409F44FC081E02816310409F446C028
:1020A00082E00E9478048FEF281A380A84E028160C
:1020B000310409F086CFDF91CF911F910F91FF90EE
:1020C000EF90DF90CF90BF90AF909F908F907F90D8
:1020D0006F905F904F903F902F900895FBDE81119D
:1020E0002BC061E083E00E94780461E082E00E94FE
:1020F000780461E084E00E94780461E085E0DF918B
:10210000CF911F910F91FF90EF90DF90CF90BF90F4
:10211000AF909F908F907F906F905F904F903F9087
:102120002F900C947804E259FF4FA1CF83E0B9CFF0
:1021300084E0B7CF85E0B5CF60E083E00E9478040B
:1021400060E082E00E94780460E084E00E9478040D
:1021500060E0D4CFCF93DF93D0E0C0E0E0916A0796
:10216000F0916B07EC0FFD1F80819181FC01EA5813
:10217000FF4FDC01AE58BF4F4D915D916D917C9149
:10218000408351836283738376971082EC5AFF4FAA
:102190001082118212821382B6976081683030F407
:1021A00050E040E08E599F4F0E949B072296C83016
:1021B000D105A1F6DF91CF9108952F923F924F92D2
:1021C0005F926F927F928F929F92AF92BF92CF92C7
:1021D000DF92EF92FF920F931F93CF93DF93CDB7D0
:1021E000DEB765970FB6F894DEBF0FBECDBF1C8279
:1021F0001B82E0916A07F0916B078B819C81E80F4D
:10220000F91FA081B181BD8BAC8BFD01E351FF4F64
:1022100080818D01005A1F4F882349F1AC54BF4F74
:10222000FD011082118212821382D8011C92EB816F
:10223000FC813296FC83EB833897D9F665960FB60E
:10224000F894DEBF0FBECDBFDF91CF911F910F91EC
:10225000FF90EF90DF90CF90BF90AF909F908F90C6
:102260007F906F905F904F903F902F900895EC89F2
:10227000FD89B696FB8BEA8BD8018C9181113FC00A
:10228000EC89FD89EC5BFF4F0190F081E02D8080AF
:102290009180A280B380EC88FD88BCE4EB0EF11C39
:1022A000F70180829182A282B382EC89FD89EE5B84
:1022B000FF4F0190F081E02D80819181A281B38157
:1022C000EC89FD89E05BFF4F80839183A283B38318
:1022D000EC89FD89E45AFF4F408051806280738011
:1022E000A3019201C501B4010E94102A18160CF036
:1022F0009AC1D7014D925D926D927C921397E1E065
:10230000D801EC938C899D8958DBD8018C91882366
:1023100009F421C10E945C056D837E838F839887B9
:10232000EC89FD89E85BFF4F80819181A281B381B7
:102330004D815E816F817885481B590B6A0B7B0B41
:10234000EC89FD89EC5AFF4F80819181A281B38194
:10235000481759076A077B0708F4FDC0EC89FD8917
:10236000EE5BFF4F0190F081E02D40805180628054
:102370007380EC89FD89EA5BFF4F0190F081E02DCD
:10238000A301920160817181828193810E945C2806
:102390006B017C01EC89FD89E05BFF4F208131817D
:1023A00042815381C301B2010E945C2869877A8708
:1023B0008B879C87EC89FD8926A937A940AD51AD53
:1023C000C701B6010E94142A0C891D89045B1F4FA6
:1023D000D8012D913D914D915C910E945D284B015A
:1023E0005C01F80180829182A282B382EC89FD892E
:1023F000EF59FF4F80818D87811119C0AC89BD894C
:10240000D2962D913D914D915C91D59769857A85B4
:102410008B859C850E94142A9B01AC01C501B401E7
:102420000E945C28F80160837183828393838C8986
:102430009D89845B9F4F9A838983DC018D919D9157
:102440000D90BC91A02D8E879F87A88BB98BEC89AE
:10245000FD89E45AFF4F2080318002811381910170
:10246000A801BC01CD010E94102A18160CF0F1C081
:10247000C101D801E981FA8180839183A283B3836A
:10248000BD85BB2309F4FFC0EC89FD8922A933A9CE
:1024900044A955A9C701B6010E94142A6B017C0109
:1024A000AC89BD89DA962D913D914D915C91DD9776
:1024B00069857A858B859C850E94142A9B01AC01D5
:1024C000EC89FD89E45BFF4F60817181828193819A
:1024D0000E945C28A70196010E945D286B017C0187
:1024E0009B01AC01B101C8010E94C12887FD12C047
:1024F000EC89FD89E85AFF4F2080318002811381E9
:102500009101A801B601C7010E94C12887FD02C040
:1025100016018701EC89FD89EC5BFF4F0190F0818A
:10252000E02DC101D80180839183A283B383EC891C
:10253000FD89E05BFF4F4082518262827382EC89A9
:10254000FD89E85BFF4F8D819E81AF81B8858083D7
:102550009183A283B383EC89FD89E452FF4FC0804D
:10256000D180E280F38020E030E048EC52E4EC8956
:10257000FD89E052FF4F60817181828193810E94C9
:102580005C284B015C01A7019601EC89FD89E852AA
:10259000FF4F60817181828193810E945C289B0141
:1025A000AC01C501B4010E94C5284B015C01A70123
:1025B0009601EC89FD89E055FF4F60817181828130
:1025C00093810E945C289B01AC01C501B4010E946B
:1025D000142A20E030E048EC52E40E945D2820E01C
:1025E00030E048EC52E40E94C52820E030EF4FE78D
:1025F00055E40E94142A6B017C0120E030EF4FE784
:1026000055E40E94102A0C891D8900561F4F181688
:10261000F4F580E090EFAFE7B5E4F80180839183B3
:10262000A283B38343C0EC89FD89E85AFF4F408001
:10263000518062807380A3019201C501B4010E94A0
:10264000C12887FF5CCEF70140825182628273828B
:1026500056CEEC89FD89E85AFF4F80809180A28098
:10266000B380A50194016E857F85888999890E9430
:10267000C12887FF05CFA981BA818D929D92AD9225
:10268000BC921397FDCEC12CD12C760109CF20E04E
:1026900030E0A901C701B6010E94C12887FD2DC005
:1026A000D801CD92DD92ED92FC921397D8010D9155
:1026B0001D912D913C9140E050E0BA018A899B899F
:1026C0000E940707EC89FD89E257FF4F10811830FF
:1026D00008F0ADCDEC89FD89EC54FF4F608171812C
:1026E000828193810E943229AB01612F8C899D895F
:1026F0008E599F4F0E949B079ACD8FE692E1A3E8E7
:10270000BAE38BCFFB0101900020E9F73197AF01CD
:10271000461B570BDC01ED91FC910280F381E02D0B
:1027200019948F929F92AF92BF920F931F93CF9362
:10273000DF93CDB7DEB7A1970FB6F894DEBF0FBE1B
:10274000CDBF19A2423008F44AE08E010F5D1F4F41
:10275000842E912CB12CA12CA50194010E943A2821
:10276000E62FB901CA01EA30FCF4E05DD801EE932E
:102770008D01232B242B252B79F790E080E01097F7
:1027800021F0BD018DEB96E0BDDFA1960FB6F89468
:10279000DEBF0FBECDBFDF91CF911F910F91BF90D4
:1027A000AF909F908F900895E95CE0CF4F925F9239
:1027B0006F927F928F929F92AF92BF92CF92DF9251
:1027C000EF92FF920F931F93CF936B017C01742EB6
:1027D000AC019B010E94772A62EB72E0811126C056
:1027E00046015701E894B7F82FEF3FEF4FE75FE757
:1027F000C501B4010E94772A81110CC02FEF3FEF71
:102800004FE75FE7C501B4010E94C12866EB72E0A3
:10281000181664F02FEF3FEF4FE75FE4C701B601F2
:102820000E94102A1816A4F46AEB72E08DEB96E071
:10283000CF911F910F91FF90EF90DF90CF90BF90BD
:10284000AF909F908F907F906F905F904F905ACFF6
:102850002FEF3FEF4FE75FECC701B6010E94C128A1
:1028600087FDE2CF20E030E0A901C701B6010E9458
:10287000C12810E000E087FF0AC06DE28DEB96E012
:102880000E945D038C01F7FAF094F7F8F094C0E031
:1028900060E070E080E09FE37C1641F020E030E0F3
:1028A00040E251E40E94C528CF5FF6CFA701960110
:1028B0000E945D282B013C010E9432294B015C01E2
:1028C0004AE02FDF7C01E00EF11ECC23B9F1C501F7
:1028D000B4010E945E299B01AC01C301B2010E94B8
:1028E0005C284B015C016EE28DEB96E00E945D037B
:1028F000E80EF91EC15010F120E030E040E251E452
:10290000C501B4010E94142A2B013C010E94322906
:102910004B01B12CA12C4AE0C501B40102DFE80E45
:10292000F91EC501B4010E945E299B01AC01C301DF
:10293000B2010E945C284B015C01DCCFC701CF9142
:102940001F910F91FF90EF90DF90CF90BF90AF90CD
:102950009F908F907F906F905F904F9008952F92EF
:102960003F924F925F926F927F928F929F92AF921F
:10297000BF92CF92DF92EF92FF920F931F93CF936C
:10298000DF9300D01F92CDB7DEB78EEC97E00E94A8
:10299000200961E085300CF460E08AE00E94780450
:1029A00080E797E00E94200961E085300CF460E048
:1029B0008BE00E9478040E94CD072091FE023091A6
:1029C000FF0240910003509101030E945C286B01BB
:1029D0007C016091F5037091F60390E080E00E9425
:1029E0005E2920E030E040E251E40E94C5289B01CE
:1029F000AC01C701B6010E94102A87FD14C00E94D5
:102A0000CD076093FE027093FF02809300039093C2
:102A100001038091F9039091FA03019721F00E943C
:102A2000790C0E944E0C23E633E03C832B83312C3F
:102A3000212CC101880F991F9A838983E0916A072D
:102A4000F0916B07E80FF91F80809180F401E25745
:102A5000FF4F31822082AB81BC8192966D917C9137
:102A600090E080E00E945E2920E030E048EC52E4F3
:102A70000E94C5286B017C01EB81FC8160A171A1E2
:102A800090E080E00E945E2920E030E048EC52E4D3
:102A90000E94C5282B013C01AB81BC815E966D91E3
:102AA0007C9190E080E00E945E2920E030E048ECDC
:102AB00052E40E94C528AB01BC01F401E454FF4F6D
:102AC0004083518362837383349640825182628251
:102AD00073823496C082D182E282F382E458F10993
:102AE000A080B18093018201C40186960E944E06A7
:102AF00000916A0710916B07E981FA81E00FF11FDD
:102B0000E080F1806701B8ECCB0ED11CEB81FC8139
:102B100064A175A190E080E00E945E2920E030E091
:102B20004AE754E40E94C528D6016D937D938D93A6
:102B30009C9313976701BCECCB0ED11CEB81FC81FD
:102B400066A177A190E080E00E945E2920E030E05D
:102B500040E251E40E94C528D6016D937D938D9388
:102B60009C931397EB81FC8160A571A590E080E0B8
:102B70000E945E29F701EC51FF4F608371838283CD
:102B80009383D7011E966D937D938D939C9351975C
:102B9000B4EAEB0EF11C6091F7037091F80390E03A
:102BA00080E00E945E2920E030E040E251E40E9493
:102BB000C528F7016083718382839383FFEF2F1A07
:102BC0003F0A2B813C81245F3F4F3C832B8334E0C1
:102BD0002316310409F02DCF8091F9039091FA0367
:102BE000019709F4AAC078016FE274E09801285FA8
:102BF0003F4FF80181919191DB014D915D91BD01B4
:102C0000DC01A351BF4F81E0452B09F480E08C9398
:102C10002E173F0779F781E494E0180120916104B1
:102C200030916204232B39F0209141043091420409
:102C3000DC012D933C93D1012D913D911D01DC01CF
:102C40004D915D91CD01D901A251BF4F21E0452B9E
:102C500009F420E02C93E215F30501F731E5A32EEA
:102C600034E0B32E8091610490916204892B39F095
:102C70008091510490915204F50191838083D80191
:102C8000CD90DD908D01F501619171915F01F4EDC1
:102C9000CF0ED11C90E080E00E945E2920E030E061
:102CA0004AE754E40E94C528D6016D937D938D9325
:102CB0009C93139720163106A9F660912704709112
:102CC000280490E080E00E945E2920E030E040E2AD
:102CD00051E40E94C5282B013C01609125047091AC
:102CE000260490E080E00E945E2920E030E040E28F
:102CF00051E40E94C5284B015C016091230470914E
:102D0000240490E080E00E945E29F7012191319136
:102D10007F01F901E052FF4F6083718382839383C7
:102D2000389780829182A282B38234964082518207
:102D3000628273822E143F0441F78091F9039091CF
:102D4000FA03019709F0B2D860917304709174048A
:102D500090E080E00E945E2920E030E040E251E413
:102D60000E94C5282B013C010DEF13E01A82198245
:102D7000E0916A07F0916B0789819A81880F991F0A
:102D8000E80FF91F20803180F101E055FF4FC0802E
:102D9000D180E280F380FF9680809180A280B38012
:102DA000A3019201C501B4010E945C289B01AC0102
:102DB000C701B6010E94102A87FD1CC0A50194011D
:102DC000C301B2010E945D289B01AC01C701B6019D
:102DD0000E94C128181674F0F101E351FF4F808161
:102DE000811108C0BB24B3948091F9039091FA0338
:102DF000019709F0B12C20E030E040E251E4C70136
:102E0000B6010E94142A0E943229D8016D937D9345
:102E10008D01E981FA81E230F10509F415C2E33050
:102E2000F10509F417C2319709F408C261E0B11045
:102E300001C060E086E00E94780429813A812F5F1A
:102E40003F4F3A8329832430310509F091CF809197
:102E5000FB039091FC030297A9F180916A0790917E
:102E60006B079A8389830DE014E07C0198E0E90EFA
:102E7000F11CA981BA81ED91FD91BA83A983EC542B
:102E8000FF4F20E030EF4FE755E460817181828190
:102E900093810E94C52820E030E048EC52E40E9473
:102EA000142A20E030E048EC52E40E94142A0E94E8
:102EB0003229F801619371938F0129813A81E216D9
:102EC000F306B9F681EE882E83E0982E10E000E03C
:102ED0008FE390E09A83898380916D0490916E04D2
:102EE000892B61F588E30E9450045C0189E30E940C
:102EF00050046C018AE30E9450047C018BE30E9421
:102F00005004A981BA81A134B10509F4B9C1A23430
:102F1000B10509F4C5C1A034B10509F4A1C180917E
:102F20006F0490917004AA94AB2821F080917104F1
:102F3000909172049093E2038093E103D4016D9128
:102F40007C9190E080E00E945E2920E030E040E249
:102F500051E40E94C528AB01BC01E0916A07F091E1
:102F60006B07E00FF11F808191810E94D607E091ED
:102F70006A07F0916B07E00FF11F0190F081E02DDF
:102F8000E151FF4F20E030E040E251E46081718187
:102F9000828193810E94142A0E943229F401619354
:102FA00071934F0129813A812F5F3F4F3A832983E3
:102FB0000E5F1F4F2334310509F08ECF8091290415
:102FC00090912A04019709F067C01A821982E09152
:102FD0006A07F0916B0789819A81E80FF91F0190C8
:102FE000F081E02DE151FF4F6081718182819381F9
:102FF00042E0DCDB6EEB72E08DEB96E083DBE09190
:103000006A07F0916B07A981BA81EA0FFB1F019053
:10301000F081E02DE055FF4F6081718182819381C5
:1030200042E0C4DB6EEB72E08DEB96E06BDBE0918F
:103030006A07F0916B0729813A81E20FF31F019033
:10304000F081E02DEC54FF4F20E030EF4FE755E4E6
:1030500060817181828193810E94C52820E030E0E7
:1030600048EC52E40E94142A42E0A0DB6EEB72E0CE
:103070008DEB96E047DB89819A8102969A8389835A
:10308000089709F0A4CF0E94CD0746E08FDB61ECE2
:1030900072E08DEB96E036DB80916B0490916C04CE
:1030A0008130910509F082C060E273E0709364039F
:1030B000609363032CE030E030936E0320936D0344
:1030C000909378038093770370936603609365030E
:1030D00022E330E03093700320936F0310927A0361
:1030E000109279034CEA5DE05093680340936703C4
:1030F000E3E4F0E0F0937203E093710390937C03B8
:1031000080937B0350936A03409369033093740365
:103110002093730310927E0310927D0310926C0330
:1031200010926B0390937603809375031092800343
:1031300010927F03EAE0F0E0F093F403E093F303EE
:103140003093240420932304709326046093250471
:1031500050932804409327043093F6032093F503FB
:1031600028E833E13093F8032093F7039093FC03AE
:103170008093FB0384E893E09093400480933F04A2
:10318000F0936604E093650484E690E090938203F4
:103190008093810390938E0380938D030E94790C1A
:1031A0000E944E0C10926C0410926B048091690482
:1031B00090916A04892B51F010926A04109269046C
:1031C0000E94790C0E944E0C0C940000A091020306
:1031D000B0910303BA83A983119791F486E30E9407
:1031E0005004892B69F48091F9039091FA030097B8
:1031F00009F066C0E981FA81F093FA03E093F903DC
:1032000086E30E94500490930303809302030F907F
:103210000F900F900F90DF91CF911F910F91FF9022
:10322000EF90DF90CF90BF90AF909F908F907F9066
:103230006F905F904F903F902F90089561E0B11094
:1032400001C060E087E0F7CD61E0B11001C060E04F
:1032500088E0F1CD61E0B11001C060E089E0EBCD24
:1032600080916F0490917004CA94CD2821F08091D0
:103270007104909172049093E4038093E3035ECE13
:1032800080916F0490917004EA94EF2821F080916E
:103290007104909172049093E6038093E5034ECEFF
:1032A000019749F480916F04909170049093E80322
:1032B0008093E70343CE8091710490917204F6CF1E
:1032C000019709F09DCF1092FA031092F90398CF5D
:1032D000CF92DF92EF92FF920F931F93CF93DF93E2
:1032E000C0916A07D0916B078E01085F1F4F80E085
:1032F000811110C0E881F981E055FF4F20E030E0F6
:10330000A90160817181828193810E94C128881FF7
:103310008827881F2296C017D10751F7882399F074
:1033200082E090E090932204809321041092FA03AB
:103330001092F9030E94AA1080910403811103C026
:1033400081E08093040300916A0710916B07680184
:1033500088E0C80ED11C7801C0E0C11113C0D701AC
:10336000ED91FC91E055FF4FC1E020E030E04AE7ED
:1033700053E460817181828193810E94102A181622
:103380000CF0C0E0B2E0EB0EF11CEC14FD0429F7E8
:1033900081E0C11133C0D1E08091F9039091FA032B
:1033A000019709F4D0E0C11121C0F801C080D1809B
:1033B000F601EA59FF4F20E030E048EC51E460812B
:1033C0007181828193810E94102A18167CF4F60183
:1033D000EC54FF4F20E030E0A901608171818281CF
:1033E00093810E94C128811101C0CD2F0E5F1F4F14
:1033F0000E151F05C1F6CC2311F082E0D8D287E369
:103400000E945004019711F483E0F8CFDF91CF912F
:103410001F910F91FF90EF90DF90CF9008951F9232
:103420000F920FB60F9211240BB60F922F933F936A
:103430004F935F936F937F938F939F93AF93BF93BC
:10344000EF93FF9386EE94E00E943B03FF91EF9190
:10345000BF91AF919F918F917F916F915F914F91AC
:103460003F912F910F900BBE0F900FBE0F901F90AA
:1034700018951F920F920FB60F9211240BB60F9250
:103480002F933F934F935F936F937F938F939F936C
:10349000AF93BF93EF93FF9386EE94E00E94C10237
:1034A000FF91EF91BF91AF919F918F917F916F911C
:1034B0005F914F913F912F910F900BBE0F900FBED8
:1034C0000F901F9018951F920F920FB60F92112414
:1034D0000BB60F922F933F934F935F936F937F930E
:1034E0008F939F93AF93BF93EF93FF9383E895E000
:1034F0000E943B03FF91EF91BF91AF919F918F91FC
:103500007F916F915F914F913F912F910F900BBEE3
:103510000F900FBE0F901F9018951F920F920FB62D
:103520000F9211240BB60F922F933F934F935F93FB
:103530006F937F938F939F93AF93BF93EF93FF937B
:1035400083E895E00E94C102FF91EF91BF91AF9196
:103550009F918F917F916F915F914F913F912F91AB
:103560000F900BBE0F900FBE0F901F9018951F92DB
:103570000F920FB60F9211240BB60F922F933F9319
:103580004F935F936F937F938F939F93AF93BF936B
:10359000EF93FF9380E296E00E943B03FF91EF914F
:1035A000BF91AF919F918F917F916F915F914F915B
:1035B0003F912F910F900BBE0F900FBE0F901F9059
:1035C00018951F920F920FB60F9211240BB60F92FF
:1035D0002F933F934F935F936F937F938F939F931B
:1035E000AF93BF93EF93FF9380E296E00E94C102F6
:1035F000FF91EF91BF91AF919F918F917F916F91CB
:103600005F914F913F912F910F900BBE0F900FBE86
:103610000F901F9018951F920F920FB60F921124C2
:103620000BB60F922F933F934F935F936F937F93BC
:103630008F939F93AF93BF93EF93FF938DEB96E0A0
:103640000E943B03FF91EF91BF91AF919F918F91AA
:103650007F916F915F914F913F912F910F900BBE92
:103660000F900FBE0F901F9018951F920F920FB6DC
:103670000F9211240BB60F922F933F934F935F93AA
:103680006F937F938F939F93AF93BF93EF93FF932A
:103690008DEB96E00E94C102FF91EF91BF91AF9137
:1036A0009F918F917F916F915F914F913F912F915A
:1036B0000F900BBE0F900FBE0F901F9018951F928A
:1036C0000F920FB60F9211242F933F938F939F93D6
:1036D000AF93BF9380914B0390914C03A0914D0306
:1036E000B0914E0330914A0323E0230F2D3758F554
:1036F0000196A11DB11D20934A0380934B03909323
:103700004C03A0934D03B0934E0380914F039091CF
:103710005003A0915103B09152030196A11DB11D18
:1037200080934F0390935003A0935103B09352039F
:10373000BF91AF919F918F913F912F910F900FBEAD
:103740000F901F90189526E8230F0296A11DB11D1A
:10375000D2CF1F920F920FB60F9211240BB60F9279
:103760002F933F934F935F936F937F938F939F9389
:10377000AF93BF93EF93FF938091B900887F80361A
:1037800009F44DC008F040C0883209F4A9C028F5FA
:10379000803109F49DC0C8F4882309F4FBC0883047
:1037A00009F496C0FF91EF91BF91AF919F918F91D6
:1037B0007F916F915F914F913F912F910F900BBE31
:1037C0000F900FBE0F901F901895883109F488C094
:1037D000803241F78093B80414C0803409F49DC04E
:1037E00040F48033B9F38833E9F68093B80485EC6C
:1037F000B0C0803509F485C0883509F496C0883496
:1038000089F60E946805CECF883909F48CC038F556
:10381000883729F050F4883611F0803719F683E0A4
:103820008093E1041092490357C0883809F47BC0A3
:10383000803919F0803809F0B5CF80914903803282
:1038400008F071C0E091490381E08E0F8093490335
:103850008091BB00F0E0E75DFC4F80833DC0803B82
:1038600039F0E0F4803A09F479C0883A09F09ACF47
:1038700084E08093E1041092280310922703E091E2
:10388000DD04F091DE0419958091270381110FC0AA
:1038900081E0809327031092070309C0803C09F45C
:1038A000A6CF883C09F4A3CF883B09F07BCFE091F9
:1038B000280381E08E0F80932803F0E0E95FFC4F3E
:1038C00080818093BB00909128038091270329C0B9
:1038D000809195048093BB0085EC8093BC0062CFFF
:1038E0009091B7048091B604981758F5E091B70409
:1038F00081E08E0F8093B704F0E0EA56FB4F8081A1
:10390000E9CFE091B70481E08E0F8093B7048091F6
:10391000BB00F0E0EA56FB4F80839091B7048091A2
:10392000B6049817C8F285E8D8CFE091B70481E0D3
:103930008E0F8093B7048091BB00F0E0EA56FB4FF6
:1039400080838091E00481115CCF81E08093DF046B
:1039500084EA8093BC001092E10424CF85EC80932C
:10396000BC001092E10480914903803230F4E09170
:103970004903F0E0E75DFC4F10826091490370E07D
:10398000E091DB04F091DC0489E293E01995109258
:10399000490308CF1092B80434CF1F920F920FB68C
:1039A0000F9211240F900FBE0F901F901895C82FE3
:1039B0000E94AA10D0E0D0932004C0931F0481E09D
:1039C00090E0909322048093210460E086E10E94BD
:1039D00078040E94AF140E94560FFBCFE6EEF4E08D
:1039E0001382128288EE93E0A0E0B0E08483958396
:1039F000A683B78322E932E03183208345E351E097
:103A00005587448744E351E05787468740E351E0B8
:103A1000518B408B41E351E0538B428B42E351E0A9
:103A2000558B448B46E351E0578B468B118E128E9B
:103A3000138E148EE3E8F5E013821282848395835B
:103A4000A683B7833183208345ED50E055874487B3
:103A500044ED50E05787468740ED50E0518B408B56
:103A600041ED50E0538B428B42ED50E0558B448B3F
:103A700046ED50E0578B468B118E128E138E148EAE
:103A8000E0E2F6E01382128284839583A683B783F3
:103A9000318320834DEC50E0558744874CEC50E057
:103AA0005787468748EC50E0518B408B49EC50E0FB
:103AB000538B428B4AEC50E0558B448B4EEC50E0DC
:103AC000578B468B118E128E138E148EEDEBF6E013
:103AD0001382128284839583A683B78331832083E4
:103AE00025EC30E03587248724EC30E037872687C3
:103AF00020EC30E0318B208B21EC30E0338B228BBB
:103B000022EC30E0358B248B26EC30E0378B268B93
:103B1000118E128E138E148EEAE5F7E01382128254
:103B200084839583A683B78384EA92E0918380831C
:103B3000EEECF7E091E0948383E0858382E0868376
:103B400028EE33E03093220820932108E0E7F7E0E5
:103B50009483858386833093C4072093C307109290
:103B60006F07ECE6F7E080E780831182E6E6F7E096
:103B70001182108213821282158214820895CF93CB
:103B8000DF93CDB7DEB7A9970FB6F894DEBF0FBEAF
:103B9000CDBF789484B5826084BD84B5816084BDD6
:103BA00085B5826085BD85B5816085BD80916E00DB
:103BB000816080936E00109281008091810082600C
:103BC0008093810080918100816080938100809149
:103BD00080008160809380008091B1008460809338
:103BE000B1008091B00081608093B000809191001D
:103BF0008260809391008091910081608093910018
:103C0000809190008160809390008091A1008260FB
:103C10008093A1008091A10081608093A100809198
:103C2000A00081608093A000809121018260809338
:103C300021018091210181608093210180912001E7
:103C400081608093200180917A00846080937A0063
:103C500080917A00826080937A0080917A008160FE
:103C600080937A0080917A00806880937A00109225
:103C7000C10040E052EC61E070E08DEB96E00E9404
:103C8000E3010E94A5048091B800809356038CE064
:103C90008093B80080E60E94970190E080E00E9447
:103CA000300690E080E00E94300690E080E00E94C4
:103CB000300690E080E00E94300690E080E00E94B4
:103CC000300690E080E00E94300690E080E00E94A4
:103CD000300690E080E00E9430060E94950181E667
:103CE0000E94970190E080E00E94300690E080E022
:103CF0000E94300690E080E00E94300690E080E074
:103D00000E94300690E080E00E94300690E080E063
:103D10000E94300690E080E00E94300690E080E053
:103D20000E9430060E949501809156038093B8004E
:103D300080E580936E070E94A5048CE70E9497019E
:103D400080916E0790E0880F991F0E944A0680E0DC
:103D50000E94380163E08CE70E94A1011092E50403
:103D60008093E4048AE597E00E94A9059A838983F9
:103D70008AE597E00E94A9058C018AE597E00E94F8
:103D8000A90529813A8194E0220F331F9A95E1F722
:103D9000207F3F70B80144E0759567954A95E1F73B
:103DA0006F707727262B372B3A8329832A303105EA
:103DB00009F4A3C564EC72E08DEB96E00E948213D7
:103DC00049815A81BA01550F880B990B40E10E9435
:103DD000911361EC72E08DEB96E00E9482130E94D9
:103DE000A50461E086E10E94D50461E086E10E94BD
:103DF000780468EE73E080E090E00E942B0560E0BC
:103E000086E30E94D50460E087E30E94D50460E069
:103E100088E30E94D50460E089E30E94D50460E055
:103E20008AE30E94D50460E08BE30E94D50461E040
:103E300082E00E94D50461E083E00E94D50461E045
:103E400084E00E94D50461E085E00E94D50461E031
:103E500086E00E94D50461E087E00E94D50461E01D
:103E600088E00E94D50461E089E00E94D50461E009
:103E70008AE00E94D50461E08BE00E94D50460EDE9
:103E800077E080E090E00E942B0501E813E088EEE7
:103E900093E09A838983C980DA8098E1C90ED11CA6
:103EA000780189809A80C4010E94370CD7018D93D4
:103EB0009D937D01B4E08B0E911C8C149D0499F7A9
:103EC000E981FA81E851FC4FFA83E983045F1F4FCF
:103ED000E838F34101F706E012E0F12CE12CD801BB
:103EE000ED91FD918D01FA83E983C7010E94370CA2
:103EF00029813A81220F331F2D593C4FD9018D93CF
:103F00009C93B4E0EB0EF11CE8EFEE16F10439F7E8
:103F100060ED77E080E090E00E942B0522E832E03F
:103F20003A832983912C812C83EF90E00E94832A8D
:103F30009DA38CA3A981BA818D91BA83A98322E321
:103F400031E140E85BE3ACA1BDA12D933D934D93DE
:103F50005C9313972FE735E04BE155EB14962D93C7
:103F60003D934D935C9317971D961C921E921C9740
:103F700019968C93199798E01A969C931A971B960A
:103F80001C921B97FD0112A213A214A215A28087F6
:103F90001D01F6E22F0E311C9D012E563F4F388732
:103FA0002F83D9018D919C91ECA1FDA1EC53FF4F82
:103FB000C080D180E280F380ECA1FDA1E054FF4FEE
:103FC00020813181428153812B833C834D835E83E9
:103FD000ECA1FDA1E454FF4F4080518062807380CA
:103FE000ECA1FDA1EC5BFF4F2CA13DA12C543F4F58
:103FF00031832083ECA1FDA1EE5BFF4F2CA13DA1FD
:1040000020553F4F31832083ECA1FDA1EA5BFF4F98
:104010002CA13DA121513F4F31832083ECA1FDA173
:10402000E05AFF4F1082ECA1FDA1E85AFF4F108229
:10403000118212821382ECA1FDA1E45AFF4F20E00D
:1040400030E04FE753E42083318342835383ECA174
:10405000FDA1EC5AFF4F24E630E040E050E0208321
:10406000318342835383ACA1BDA1DF969C938E9391
:10407000DE9720E030E0A901C301B2010E94C1280F
:1040800087FD20C020E030E0A9016B817C818D811B
:104090009E810E94C12887FD15C020E030E0A90163
:1040A000C701B6010E94C12887FD0CC0AA24A394B1
:1040B000B12C0B811C812D813E81B301A201C10174
:1040C0000E944E060E945C05ECA1FDA1E85BFF4F3B
:1040D0006CA07DA0B4E56B0E711CD3010D911D91F8
:1040E0002D913C91601B710B820B930B608371834C
:1040F00082839383ECA1FDA1EE59FF4F809155037C
:104100009091560391838083ECA1FDA1EC59FF4F60
:1041100080916C0790916D0791838083ECA1FDA144
:10412000EA59FF4F1082118212821382ECA1FDA185
:10413000E659FF4F20E030E040E753E4208331832D
:1041400042835383ECA1FDA1E259FF4F80E090E050
:10415000A0EAB1E480839183A283B383ECA1FDA1A3
:10416000EE58FF4F20E030E84BE355E420833183E5
:1041700042835383ECA1FDA1EA58FF4F80839183D2
:10418000A283B383ECA1FDA1E658FF4F81E599E43A
:10419000ADE1BCE380839183A283B383ECA1FDA155
:1041A000E258FF4F23E333EF4DE654E4208331839D
:1041B00042835383ECA1FDA1EE57FF4F85EC90E2C3
:1041C000A0EBBCE380839183A283B383ECA1FDA128
:1041D000EA57FF4F29EA35EB43EA51E42083318364
:1041E00042835383ECA1FDA1E657FF4F80E090E0AE
:1041F000A8EAB1E480839183A283B383AF81B885B9
:104200001D921C92ECA1FDA1EC56FF4F1082118271
:1042100012821382ECA1FDA1E456FF4F2CE231E0A3
:1042200040E050E020833183428353834CA05DA063
:1042300030EA430E511C80E090EFAFE7B5E4F201A5
:1042400080839183A283B383ECA1FDA1E855FF4F46
:104250001082118212821382ECA1FDA1E055FF4F62
:1042600020E030E048EA51E42083318342835383E5
:10427000ECA1FDA1EC54FF4F108211821282138237
:10428000ECA1FDA1E854FF4F10821182128213822B
:10429000ECA1FDA1E454FF4F10821182128213821F
:1042A000ECA1FDA1E054FF4F108211821282138213
:1042B000ECA1FDA1EC53FF4F1082118212821382F8
:1042C000ECA1FDA1E853FF4F80E090E0A0E8BFE340
:1042D00080839183A283B383ECA1FDA1E453FF4FBC
:1042E0001082118212821382ECA1FDA1E053FF4FD4
:1042F0001082118212821382ECA1FDA1EC52FF4FB9
:104300008AE097EDA3E2BCE380839183A283B38329
:10431000ECA1FDA1EC51FF4F80E090E0A8ECB4E4EB
:1043200080839183A283B383ECA1FDA1E851FF4F69
:1043300080E090E0AAE7B4E480839183A283B38312
:10434000ECA1FDA1E451FF4F1082ECA1FDA1E351CE
:10435000FF4F1082ECA1FDA1E251FF4F1082ECA1B2
:10436000FDA1E151FF4F1082118212821382ECA154
:10437000FDA1E257FF4F91828082ECA1FDA1E05C9C
:10438000FF4FA080B180C12CD12C7601970186010E
:10439000B701A601C1010E944E06D2010D911D91E7
:1043A0002D913C91B701A601C1010E940707F301BD
:1043B000608171818281938181D79B01AC0160E032
:1043C00070E080EA90E4E1D66B017C01AC019B01D6
:1043D000ACA1BDA1D6966D917D918D919C91D997FF
:1043E0000E94142AECA1FDA166AB77AB80AF91AF20
:1043F000A701960162AD73AD84AD95ADC6D6ACA1F3
:10440000BDA1DA966D937D938D939C93DD9785E0A6
:1044100090E0A0E0B0E0F30180839183A283B383B6
:104420000E94A504ACA1BDA11D961C921E921C97D2
:10443000B0935403A0935303809168079091690748
:1044400020916607309167078217930711F57C0169
:10445000EE0CFF1C892B09F468C2C7019093690711
:1044600080936807880F991F0E94832A9C838B83FF
:1044700000916A0710916B07A701B8010E94A82B51
:10448000C8010E941F2BEB81FC81F0936B07E09326
:104490006A0720916A0730916B07809166079091B7
:1044A0006707AC014F5F5F4F509367074093660704
:1044B0004091530350915403880F991F820F931F0B
:1044C000DC014D935C93BFEF8B1A9B0AE4E08E16E0
:1044D000910409F029CD23E633E03C832B83312C72
:1044E000212CA101440F551F5A834983E0916A078B
:1044F000F0916B07E40FF51F80809180F401E25783
:10450000FF4F31822082E25AFF4F1082AB81BC8183
:1045100092966D917C9190E080E0D0D620E030E0E2
:1045200048EC52E432D66B017C01EB81FC8160A146
:1045300071A190E080E0C2D620E030E048EC52E487
:1045400024D62B013C01AB81BC815E966D917C91A0
:1045500090E080E0B3D620E030E048EC52E415D69D
:10456000AB01BC01F401E454FF4F408351836283EB
:104570007383349640825182628273823496C08201
:10458000D182E282F382E458F109A080B1809301E4
:104590008201C40186960E944E06E0916A07F0915E
:1045A0006B0729813A81E20FF31FE080F1808701D8
:1045B00008531F4FAB81BC8194966D917C9190E024
:1045C00080E07CD620E030E04AE754E4DED5F80114
:1045D00060837183828393830C5F1F4FAB81BC81A7
:1045E00096966D917C9190E080E068D620E030E076
:1045F00040E251E4CAD5F8016083718382839383DA
:10460000AB81BC8198966D917C9190E080E056D60C
:10461000F701EC51FF4F6083718382839383F7012D
:1046200066877787808B918B085211096091F70319
:104630007091F80390E080E041D620E030E040E265
:1046400051E4A3D5D8016D937D938D939C931397DB
:1046500000E010EF2FE735E440E050E0BA01C70179
:1046600086960E940707BFEF2B1A3B0AEB81FC815D
:104670003C96FC83EB83F4E02F16310409F031CF34
:10468000A0906A07B0906B078FE294E09501285FD5
:104690003F4FF50161917191DC014D915D91CD012B
:1046A000DB01A351BF4F61E0452B09F460E06C933F
:1046B000E217F30779F781E494E045012091610462
:1046C00030916204232B39F020914104309142044F
:1046D000DC012D933C93D4014D915D914D01DC01A2
:1046E0002D913D91CD01DA01A251BF4F41E0232B25
:1046F00009F440E04C938E169F0601F791E5C92E10
:1047000094E0D92E85018091610490916204892BF7
:1047100039F08091510490915204F6019183808385
:10472000D801ED90FD908D01F601619171916F01BD
:10473000F4EDEF0EF11C90E080E0C0D520E030E019
:104740004AE754E422D5D7016D937D938D939C93D2
:10475000139780169106B9F660912704709128048A
:1047600090E080E0ABD520E030E040E251E40DD5B0
:104770002B013C01609125047091260490E080E0BB
:104780009DD520E030E040E251E4FFD46B017C0194
:10479000609123047091240490E080E08FD5F501AE
:1047A000219131915F01F901E052FF4F60837183E4
:1047B000828393833897C082D182E282F3823496D7
:1047C00040825182628273828A149B0441F78EEC8C
:1047D00097E00E94430220E137E2309322082093C1
:1047E000210880E797E00E94430240E157E250939E
:1047F000C4074093C3070E94AF148091F9039091BE
:10480000FA03019709F0FBC38091FB039091FC032D
:10481000009709F08DC00E94AF1401EE13E01A82D8
:104820001982D8016D917D918D0190E080E046D58F
:1048300020E030E040E251E4A8D4AB01BC01E091BB
:104840006A07F0916B0729813A81E20FF31F80819B
:1048500091810E94D60749815A814E5F5F4F5A83EA
:10486000498348305105E9F60E94DD100E94A40FEB
:104870000E9468196091F1037091F20390E080E06A
:104880001DD520E030E040E251E47FD420E030E06C
:10489000A90177D4882321F10E94CD0720915F03DD
:1048A00030916003409161035091620305D46B0124
:1048B0007C016091F1037091F20390E080E0FED4FE
:1048C00020E030E040E251E460D49B01AC01C7013C
:1048D000B601A6D5181624F41092FA031092F90323
:1048E0000E94CD0760935B0370935C0380935D032C
:1048F00090935E030E94C80380CF102F00270027EB
:104900001F70082B003155E0150759F063EE72E077
:104910008DEB96E00E948213B801110F880B990B62
:1049200055CA81E080936F075ACA81E090E096CD26
:104930008130910509F084C10E94AF140E94CD0717
:1049400080905B0390905C03A0905D03B0905E0349
:10495000A5019401B1D36B017C0160916D0370914D
:104960006E0390E080E0AAD420E030E040E251E421
:104970000CD469837B838F839B8F60916F037091CD
:10498000700390E080E09AD420E030E040E251E40F
:10499000FCD329813B814F815B8D8FD36C8F7D8FC1
:1049A0008E8F9F8F609171037091720390E080E011
:1049B00085D420E030E040E251E4E7D32C8D3D8DFA
:1049C0004E8D5F8D7AD31B018C01609173037091C2
:1049D000740390E080E072D420E030E040E251E4E3
:1049E000D4D39101A80169D368A379A38AA39BA317
:1049F00081EE93E09DA38CA319A618A620E030E0D9
:104A0000A901C701B6010CD518160CF076C1298191
:104A10003B814F815B8DC701B601B3D318160CF4EF
:104A20006CC1609163037091640390E080E046D4B0
:104A300020E030E040E251E4A8D36D877E878F8785
:104A4000988B20915703309158034091590350910E
:104A50005A0329873A874B875C87409177035091A7
:104A600078035E8B4D8B60916D0370916E0390E0C7
:104A700080E024D420E030E040E251E486D3698B2A
:104A80007A8B8B8B9C8B1F8A188E198E1A8EE091D5
:104A90006A07F0916B0788A599A5E80FF91FA08117
:104AA000B181BFA3AEA3ED89FE89319709F05FC242
:104AB00029853A854B855C856D857E858F859889AE
:104AC000FBD229893A894B895C895FD32B013C0150
:104AD0002F89388D498D5A8DC701B601EDD29B01C2
:104AE000AC01C301B201A0D429853A854B855C8510
:104AF000E4D2AB01BC018EA19FA10E94D607E09138
:104B00006A07F0916B0728A539A5E20FF31F019002
:104B1000F081E02DE151FF4F20E030E040E251E430
:104B200060817181828193817FD49CD3ACA1BDA12E
:104B30006D937D93BDA3ACA3E8A5F9A53296F9A723
:104B4000E8A7389709F05ACF60916D0370916E0312
:104B500090E080E0B3D320E030E040E251E415D3B0
:104B60006B017C0160916F037091700390E080E0B5
:104B7000A5D320E030E040E251E407D39B01AC0133
:104B8000C701B6019AD26B017C01609171037091EB
:104B9000720390E080E092D320E030E040E251E404
:104BA000F4D29B01AC01C701B60187D26B017C0135
:104BB000609173037091740390E080E07FD320E0F4
:104BC00030E040E251E4E1D29B01AC01C701B60103
:104BD00074D26B017C01609175037091760390E053
:104BE00080E06CD320E030E040E251E4CED29B0183
:104BF000AC01C701B60161D230D32B013C010E9448
:104C0000CD07A501940158D26B017C01C301B2010B
:104C100057D39B01AC01C701B60102D418160CF49E
:104C2000ABC10E94DD100E9468190E94CD076093FD
:104C30005F037093600380936103909362035ACE85
:104C4000029709F057CE0E94AF148DE0E82E84E061
:104C5000F82E912C812CE0916A07F0916B07E80DFA
:104C6000F91D208131813A832983D7010D911D914E
:104C70007D01F901E05AFF4F1082C9010E94DD0C4D
:104C8000B80190E080E01AD320E030E048EC52E434
:104C90007CD220E030E048EC52E477D220E030EFE4
:104CA0004FE755E4C1D3E981FA81EC54FF4F6083AB
:104CB000718382839383E981FA81E451FF4F2081DC
:104CC000211110C0E981FA81E257FF4F108118309D
:104CD00048F4C8D2AB01612F89819A818E599F4FC8
:104CE0000E949B07B2E08B0E911CE8E08E169104A7
:104CF00009F0B1CF0E946819FDCD29813B814F8118
:104D00005B8DC701B6018CD318160CF049C02C8DF1
:104D10003D8D4E8D5F8DC701B60133D218160CF450
:104D20003FC0609165037091660390E080E0C6D259
:104D300020E030E040E251E428D26D877E878F8703
:104D4000988B609163037091640390E080E0B6D229
:104D500020E030E040E251E418D269877A878B87FF
:104D60009C878091790390917A039E8B8D8B6091C3
:104D70006F037091700390E080E0A0D220E030E0FB
:104D800040E251E402D2698B7A8B8B8B9C8B9981A8
:104D90009F8BAB81A88FBF81B98FEB8DEA8F77CEC8
:104DA0002C8D3D8D4E8D5F8DC701B60139D3181600
:104DB0000CF047C09101A801C701B601E2D1181655
:104DC0000CF43FC0609167037091680390E080E04D
:104DD00075D220E030E040E251E4D7D16D877E8784
:104DE0008F87988B609165037091660390E080E0F7
:104DF00065D220E030E040E251E4C7D169877A878C
:104E00008B879C8720917B0330917C033E8B2D8B7D
:104E1000609171037091720390E080E04FD220E0C6
:104E200030E040E251E4B1D1698B7A8B8B8B9C8B63
:104E30003C8D3F8B4D8D488F5E8D598F8F8D8A8F26
:104E400026CE9101A801C701B601EAD218160CF0CE
:104E500045C028A139A14AA15BA1C701B60191D1E2
:104E600018160CF43BC06091690370916A0390E0DE
:104E700080E024D220E030E040E251E486D16D872A
:104E80007E878F87988B609167037091680390E0AD
:104E900080E014D220E030E040E251E476D169872E
:104EA0007A878B879C87A0917D03B0917E03BE8B10
:104EB000AD8B609173037091740390E080E0FED13C
:104EC00020E030E040E251E460D1698B7A8B8B8B3B
:104ED0009C8B2F8A388E098F1A8FD9CD28A139A1A2
:104EE0004AA15BA1C701B6019BD218160CF0CFCD29
:104EF00060916B0370916C0390E080E0DFD120E063
:104F000030E040E251E441D16D877E878F87988BF6
:104F10006091690370916A0390E080E0CFD120E056
:104F200030E040E251E431D169877A878B879C87F2
:104F3000E0917F03F0918003FE8BED8B6091750310
:104F40007091760390E080E0B9D120E030E040E25B
:104F500051E41BD1698B7A8B8B8B9C8BF8A1FF8BD7
:104F600029A1288F3AA1398F4BA14A8F90CD4D8529
:104F70005E856F857889BFCD0E94AA100E94A40F1C
:104F80000E946A0F882351F10E94CD0760935B0352
:104F900070935C0380935D0390935E03E0916A07D6
:104FA000F0916B070190F081E02DE055FF4F80817B
:104FB0009181A281B3818093570390935803A0936A
:104FC0005903B0935A038091670490916804019645
:104FD00090936804809367040E94A40F2091670453
:104FE0003091680480916504909166042817390710
:104FF00008F419CE1092FA031092F90314CE0E940D
:10500000AF140E94AA100E9468190E94A40F0E9467
:10501000CD0760935F037093600380936103909367
:1050200062030E94CD0760935B0370935C038093DF
:105030005D0390935E031092680410926704E09100
:105040006A07F0916B070190F081E02DE055FF4F6A
:1050500080819181A281B3818093570390935803FB
:10506000A0935903B0935A0345CC80916A0790915D
:105070006B07E5C2A1E21A2EAA1BBB1BFD010DC0E6
:10508000AA1FBB1FEE1FFF1FA217B307E407F507F8
:1050900020F0A21BB30BE40BF50B661F771F881FD4
:1050A000991F1A9469F760957095809590959B016A
:1050B000AC01BD01CF0108955058BB27AA270ED0DF
:1050C00075C166D130F06BD120F031F49F3F11F4FF
:1050D0001EF45BC10EF4E095E7FB51C1E92F77D1D7
:1050E00080F3BA17620773078407950718F071F405
:1050F0009EF58FC10EF4E0950B2EBA2FA02D0B015B
:10510000B90190010C01CA01A0011124FF27591B0C
:1051100099F0593F50F4503E68F11A16F040A22F12
:10512000232F342F4427585FF3CF46953795279583
:10513000A795F0405395C9F77EF41F16BA0B620B82
:10514000730B840BBAF09150A1F0FF0FBB1F661FC9
:10515000771F881FC2F70EC0BA0F621F731F841F0C
:1051600048F4879577956795B795F7959E3F08F032
:10517000B3CF9395880F08F09927EE0F97958795F1
:105180000895D9D008F481E008950CD00FC107D15B
:1051900040F0FED030F021F45F3F19F0F0C0511123
:1051A00039C1F3C014D198F39923C9F35523B1F34E
:1051B000951B550BBB27AA2762177307840738F086
:1051C0009F5F5F4F220F331F441FAA1FA9F333D0E5
:1051D0000E2E3AF0E0E830D091505040E695001C99
:1051E000CAF729D0FE2F27D0660F771F881FBB1F55
:1051F000261737074807AB07B0E809F0BB0B802D2F
:10520000BF01FF2793585F4F2AF09E3F510568F07A
:10521000B6C000C15F3FECF3983EDCF3869577950E
:105220006795B795F7959F5FC9F7880F911D96957C
:10523000879597F90895E1E0660F771F881FBB1FD8
:10524000621773078407BA0720F0621B730B840B85
:10525000BA0BEE1F88F7E095089504D06894B11159
:10526000D9C00895BCD088F09F5790F0B92F9927E6
:10527000B751A0F0D1F0660F771F881F991F1AF061
:10528000BA95C9F712C0B13081F0C3D0B1E008952A
:10529000C0C0672F782F8827B85F39F0B93FCCF3AB
:1052A000869577956795B395D9F73EF49095809557
:1052B000709561957F4F8F4F9F4F0895E89409C077
:1052C00097FB3EF490958095709561957F4F8F4F39
:1052D0009F4F9923A9F0F92F96E9BB279395F6954F
:1052E000879577956795B795F111F8CFFAF4BB0FCD
:1052F00011F460FF1BC06F5F7F4F8F4F9F4F16C031
:10530000882311F096E911C0772321F09EE8872FBA
:10531000762F05C0662371F096E8862F70E060E076
:105320002AF09A95660F771F881FDAF7880F9695EF
:10533000879597F90895990F0008550FAA0BE0E893
:10534000FEEF16161706E807F907C0F01216130647
:10535000E407F50798F0621B730B840B950B39F487
:105360000A2661F0232B242B252B21F408950A26ED
:1053700009F4A140A6958FEF811D811D089597F92D
:105380009F6780E870E060E008959FEF80EC0895EB
:1053900000240A9416161706180609060895002414
:1053A0000A9412161306140605060895092E03948E
:1053B000000C11F4882352F0BB0F40F4BF2B11F402
:1053C00060FF04C06F5F7F4F8F4F9F4F089557FD61
:1053D0009058440F551F59F05F3F71F04795880F63
:1053E00097FB991F61F09F3F79F0879508951216FA
:1053F00013061406551FF2CF4695F1DF08C01616A6
:1054000017061806991FF1CF869571056105089456
:105410000895E894BB2766277727CB0197F908956D
:105420008ADF08F48FEF08950BD0C0CFB1DF28F0EA
:10543000B6DF18F0952309F0A2CFA7CF1124EACF49
:10544000C6DFA0F3959FD1F3950F50E0551F629FE3
:10545000F001729FBB27F00DB11D639FAA27F00DCD
:10546000B11DAA1F649F6627B00DA11D661F829FF4
:105470002227B00DA11D621F739FB00DA11D621FD9
:10548000839FA00D611D221F749F3327A00D611DF6
:10549000231F849F600D211D822F762F6A2F1124D8
:1054A0009F5750408AF0E1F088234AF0EE0FFF1F2B
:1054B000BB1F661F771F881F91505040A9F79E3F62
:1054C000510570F05CCFA6CF5F3FECF3983EDCF364
:1054D000869577956795B795F795E7959F5FC1F79F
:1054E000FE2B880F911D9695879597F9089523DFD8
:1054F000880B990B0895EE0FFF1F881F8BBF079035
:10550000F691E02D19940F931F93CF93DF93823080
:10551000910510F482E090E0E0912E08F0912F08C0
:1055200030E020E0B0E0A0E0309799F4211531059B
:1055300009F44AC0281B390B24303105D8F58A817B
:105540009B816115710589F1FB0193838283FE01C3
:1055500011C0408151810281138148175907E0F041
:105560004817590799F4109761F012960C93129707
:1055700013961C933296CF01DF91CF911F910F911B
:10558000089500932E0810932F08F4CF21153105AC
:1055900051F04217530738F0A901DB019A01BD0110
:1055A000DF01F801C1CFEF01F9CF90932F0880936D
:1055B0002E08CDCFFE01E20FF31F8193919322506D
:1055C000310939832883D7CF20912C0830912D08B9
:1055D000232B41F4209102023091030230932D08D5
:1055E00020932C08209100023091010221153105F1
:1055F00041F42DB73EB74091040250910502241B9F
:10560000350BE0912C08F0912D08E217F307A0F478
:105610002E1B3F0B2817390778F0AC014E5F5F4F08
:105620002417350748F04E0F5F1F50932D08409305
:105630002C08819391939FCFF0E0E0E09CCFCF9333
:10564000DF930097E9F0FC01329713821282A09158
:105650002E08B0912F08ED0130E020E01097A1F462
:1056600020813181820F931F20912C0830912D08C9
:105670002817390709F061C0F0932D08E0932C0832
:10568000DF91CF910895EA01CE17DF07E8F54A814F
:105690005B819E0141155105B1F7E901FB83EA8366
:1056A00049915991C40FD51FEC17FD0761F4808112
:1056B00091810296840F951FE901998388838281E5
:1056C00093819B838A83F0E0E0E012968D919C9118
:1056D00013970097B9F52D913C911197CD01029642
:1056E000820F931F20912C0830912D08281739071D
:1056F00039F6309751F510922F0810922E08B0937A
:105700002D08A0932C08BCCFD383C2834081518144
:10571000840F951FC817D90761F44E5F5F4F8881CA
:105720009981480F591F518340838A819B819383BC
:1057300082832115310509F0B0CFF0932F08E09353
:105740002E089ECFFD01DC01C0CF13821282D7CF7D
:10575000FB01DC0102C001900D9241505040D8F78E
:10576000089511E0C3E0D1E000E005C0802FFE0104
:10577000C2DE2196011DC430D10780E00807B1F7D1
:04578000F894FFCFCB
:105784000000300880000000010002000300040053
:10579400050006000700080009000A000B000C00C1
:1057A4000D000E00470048006000610062004900DF
:1057B4004A003F00400041004200430044004500CD
:1057C40046004C00630066006700680069006A00D8
:1057D4006B006C006D006E006F0070007100720051
:1057E40073007400750076007700780079007A0001
:1057F4007B007C007D007E008100850086008700A0
:10580400880048494A4B0102030405060F100000B2
:1058140000005D039402DA02A9030B03E902FD020E
:1058240000000000EF05C30588079905BC05A9051C
:105834009A056E616E00696E66006F7666002C20B4
:10584400000D0A00556E6578706563746564204DBB
:10585400616E7566616374757265722049443A209D
:10586400307800556E657870656374656420507295
:0E5874006F647563742049443A203078000058
:00000001FF
