:100000000C946A010C949B010C949B010C949B0131
:100010000C949B010C949B010C949B010C949B01F0
:100020000C949B010C94F61E0C94F61E0C94F61E78
:100030000C949B010C949B010C949B010C949B01D0
:100040000C949B010C949B010C949B010C949B01C0
:100050000C949B010C949B010C949B010C94881DA7
:100060000C949B010C945E1D0C94341D0C949B010C
:100070000C949B010C949B010C949B010C949B0190
:100080000C949B010C949B010C949B010C949B0180
:100090000C940A1D0C94E01C0C949B010C94D21D32
:1000A0000C949B010C949B010C949B010C949B0160
:1000B0000C949B010C949B010C949B010C949B0150
:1000C0000C949B010C949B010C949B010C94B61C0A
:1000D0000C948C1C0C949B010C94621C0C94381C8A
:1000E0000C949B010C942F0C0C944D070C949D01C7
:1000F0000C94ED030C94FD030C9475030C94010413
:100100000C944C070C945C070C94D8030C94520D7F
:100110000C940B040C943B110C9437110C944E0C62
:100120000C94A3070C941D040C94A1020C94110CC4
:100130000C9439110C94CD2A0C94D2020C941F0DFE
:100140000C94F7030C9428030C94630D0C94B10DDC
:100150000C941E0B0C940F040C94E2030C945B02A1
:100160000C94C4020C9413040C9449090C94F303EA
:100170000C946F070C9476070C94AC100C943C0C08
:100180000C94E6030C94171F0C9405040C947D0C3E
:100190000C9419040C949E010C94B0020C94EA0384
:1001A0000C94DE030C9418040C94410C0C94EA0C8F
:1001B00000002100240027002A002D003000330019
:1001C00001010000040107010A01000022002500CE
:1001D00028002B002E003100340002010000050130
:1001E00008010B01000020002300260029002C003C
:1001F0002F0032000001000003010601090105057E
:100200000505070508080808020202020A0A08088C
:1002100004040404010101010101010103030303BA
:1002200003030303040707070C0C0C0C0C0C0C0C49
:100230000202020206060606060606060B0B0B0B5A
:100240000B0B0B0B0102102020080810204010207F
:10025000408002010201080402010102040810208A
:100260004080804020100804020180040201804088
:1002700020100804020108040201010204081020F1
:100280004080010204081020408000000A0B02098F
:100290000C0D0E0807030401000000000000000020
:1002A000000000000000000000000000000000004E
:1002B000000000000000121110000000000000000B
:1002C000000000000000000000000000000000002E
:1002D000171FCD2A11241FBECFEFD1E2DEBFCDBF45
:1002E00000E00CBF12E0A0E0B2E0E0E0FDE500E0DD
:1002F0000BBF02C007900D92AE3FB107D9F728E0BF
:10030000AEEFB2E001C01D92A633B207E1F711E0F3
:10031000C9E6D1E000E006C021970109802FFE0167
:100320000E94382DC836D10780E00807A9F70E943F
:10033000E81F0C946E2E0C9400000895089591E02F
:100340009093C2048093E3041092E9041092E804AD
:100350000895CF92DF92EF92FF92CF93DF93EC015B
:100360006A017B01E889F98982E08083C11481EE0A
:10037000D806E104F104A1F060E079E08DE390E0BB
:10038000A70196010E94D32A215031094109510940
:100390005695479537952795211580E1380798F0B0
:1003A000E889F989108260E874E88EE190E0A7019D
:1003B00096010E94D32A21503109410951095695CD
:1003C000479537952795EC85FD853083EE85FF852C
:1003D0002083188EEC89FD8986E08083EA89FB8979
:1003E000808180618083EA89FB8980818860808345
:1003F000EA89FB89808180688083EA89FB89808122
:100400008F7D8083DF91CF91FF90EF90DF90CF9031
:100410000895CF93DF93EC018D81823009F442C0BF
:10042000833009F442C0813009F042C086E296E090
:100430009983888340E052EC61E070E08881998183
:100440000E94A9018E81823078F08091040180663B
:1004500080930401809105018F7B80930501809139
:1004600005018F7D8093050188819981DC01ED91E3
:10047000FC910284F385E02D199597FFF5CFFE01DD
:10048000E75BFF4F108231961082379611821082FF
:10049000329711821082C35BDF4F19821882DF917D
:1004A000CF91089589E895E0C3CF8CEE94E0C0CF5A
:1004B00083EC96E0BDCFAF92BF92CF92DF92EF92E6
:1004C000FF920F931F93CF93DF936C017B018B01FE
:1004D000040F151FEB015E01AE18BF08C017D1074E
:1004E00059F06991D601ED91FC910190F081E02DD8
:1004F000C6011995892B79F7C501DF91CF911F911D
:100500000F91FF90EF90DF90CF90BF90AF90089544
:10051000FC01A089B1898C91A689B78982FD0FC0A1
:100520009C91818D8F5F8F73228D821749F0A18DF1
:10053000AE0FBF2FB11D5D969C93818F08958C9156
:100540000895FC01538D448D252F30E0842F90E0D9
:10055000821B930B541710F0CF96089501970895BE
:10056000FC01918D828D981761F0A28DAE0FBF2F87
:10057000B11D5D968C91928D9F5F9F73928F90E0DD
:1005800008958FEF9FEF0895FC01918D828D98174C
:1005900031F0828DE80FF11D858D90E008958FEF89
:1005A0009FEF0895FC01918D228D892F90E0805C52
:1005B0009F4F821B91098F73992708958CEE94E0C9
:1005C0000E94D20221E0892B09F420E0822F0895B5
:1005D00089E895E00E94D20221E0892B09F420E00D
:1005E000822F089586E296E00E94D20221E0892BB4
:1005F00009F420E0822F089583EC96E00E94D20255
:1006000021E0892B09F420E0822F0895FC01A48DBC
:10061000A80FB92FB11DA35ABF4F2C91848D90E024
:1006200001968F739927848FA689B7892C93A08907
:10063000B1898C91837080648C93938D848D981391
:1006400006C00288F389E02D80818F7D8083089524
:10065000EF92FF920F931F93CF93DF93EC0181E012
:10066000888F9B8D8C8D98131AC0E889F9898081B9
:1006700085FF15C09FB7F894EE89FF896083E889EC
:10068000F98980818370806480839FBF81E090E0DE
:10069000DF91CF911F910F91FF90EF900895F62E6B
:1006A0000B8D10E00F5F1F4F0F731127E02E8C8D05
:1006B0008E110CC00FB607FCFACFE889F98980814A
:1006C00085FFF5CFCE010E940603F1CFEB8DEC0F35
:1006D000FD2FF11DE35AFF4FF0829FB7F8940B8F67
:1006E000EA89FB8980818062CFCFCF93DF93EC01D1
:1006F000888D8823B9F0AA89BB89E889F9898C910A
:1007000085FD03C0808186FD0DC00FB607FCF7CFC5
:100710008C9185FFF2CF808185FFEDCFCE010E94C5
:100720000603E9CFDF91CF91089580E090E0892B17
:1007300029F00E94FC0281110E94000080E090E0FC
:10074000892B29F00E94F20281110E94000080E0B2
:1007500090E0892B29F00E94E80281110E9400009C
:1007600080E090E0892B29F00E94DE0281110C9438
:10077000000008958150823108F05AC0E82FF0E05F
:100780008827EA53FC4F8F4F0C94382DE603EA0379
:10079000D803DE03E2031804ED03F303F703FD03BC
:1007A000010405040B040F041804130419041D04A8
:1007B000809180008F7780938000089580918000E1
:1007C0008F7DF9CF80918000877FF5CF84B58F77BB
:1007D00084BD089584B58F7DFBCF8091B0008F7765
:1007E0008093B00008958091B0008F7DF9CF809103
:1007F00090008F77809390000895809190008F7D76
:10080000F9CF80919000877FF5CF8091A0008F77FE
:100810008093A00008958091A0008F7DF9CF8091F2
:10082000A000877FF5CF809120018F7780932001F2
:100830000895809120018F7DF9CF80912001877FDD
:10084000F5CFCF93DF93282F30E0F901E657FD4F26
:100850008491F901EC5BFD4FD491F901E250FE4F18
:10086000C491CC23A1F081110E94BA03EC2FF0E0D7
:10087000EE0FFF1FEC51FE4FA591B491EC91ED23CB
:1008800081E090E009F480E0DF91CF91089580E06D
:1008900090E0FACF1F93CF93DF93282F30E0F90138
:1008A000E657FD4F8491F901EC5BFD4FD491F901BE
:1008B000E250FE4FC491CC23A9F0162F81110E9463
:1008C000BA03EC2FF0E0EE0FFF1FE653FE4FA591A9
:1008D000B4918FB7F894EC91111108C0D095DE2334
:1008E000DC938FBFDF91CF911F910895DE2BF8CF5E
:1008F000CF93DF9390E0FC01EC5BFD4F249182509D
:100900009E4FFC0184918823D1F090E0880F991FBD
:10091000FC01E055FE4FA591B491FC01E653FE4F5A
:10092000C591D49161110EC09FB7F8948C91E22FBC
:10093000E0958E238C932881E223E8839FBFDF918B
:10094000CF9108958FB7F894EC91E22BEC938FBF81
:10095000F6CF3FB7F8948091500390915103A09146
:100960005203B091530326B5A89B05C02F3F19F041
:100970000196A11DB11D3FBFBA2FA92F982F88271F
:10098000BC01CD01620F711D811D911D42E0660FFA
:10099000771F881F991F4A95D1F708958F929F92CC
:1009A000AF92BF92CF92DF92EF92FF926B017C01E8
:1009B0000E94A9044B015C01C114D104E104F104BB
:1009C000B9F00E94A904681979098A099B09683E4F
:1009D00073408105910580F321E0C21AD108E10836
:1009E000F10888EE880E83E0981EA11CB11CE4CFAC
:1009F000FF90EF90DF90CF90BF90AF909F908F903F
:100A000008952FB7F89460914C0370914D03809135
:100A10004E0390914F032FBF089520912803260F76
:100A20003327331F21323105ECF42091BC04FC0143
:100A300090E080E0243069F082E00895A0912803DE
:100A40002191AC01485F5C4FA40FB52FB11D2C93D1
:100A50000196861798F380912803680F6093280306
:100A600080E0089581E008951092BC0481E08093B5
:100A7000BB041092960461E084E10E944A0461E0A4
:100A800085E10E944A04E9EBF0E080818E7F80835B
:100A900080818D7F808388E48093B80085E4809393
:100AA000BC0008951092EB041092EA041092E9043D
:100AB0001092E8040E9434058DE991E09093E704D8
:100AC0008093E6048EE991E09093E5048093E4043A
:100AD0000895CF93DF9391E0909307038823B9F0B3
:100AE000C091B800D091BA008091BC008A7B8093FD
:100AF000BC0060E084E10E944A0460E085E10E945D
:100B00004A040E943405D093BA00C093B800DF9124
:100B1000CF9108958F929F92AF92BF92CF92DF9222
:100B2000EF92FF920F931F93CF93DF93D091E8043E
:100B3000D13208F0D7C0182FC091E3040E94A90455
:100B40006B017C018091BC0481116BC082E08093B9
:100B5000BC041093BB048FEF8093BA041092B904C5
:100B6000D093B804A3ECB4E0E8E9F4E080E0D81353
:100B700091C01092970480919704CC0FC82BC0931A
:100B8000970480919604813009F088C010929604F1
:100B90000E94A9046B017C01809197048093BB00A3
:100BA0008091BE049091BF04A091C004B091C10493
:100BB000892B8A2B8B2BA1F00E94A9040091BE04E3
:100BC0001091BF042091C0043091C1046C197D09BB
:100BD0008E099F09061717072807390708F442C02E
:100BE0008091BC0083FDD8CF85EC8093BC000E942F
:100BF000A9046B017C018091BC04823009F450C0CF
:100C00008091BA048F3F09F46FC08091BA0480329A
:100C100009F46CC08091BA04803309F469C084E09F
:100C200026C08091BE049091BF04A091C004B091F1
:100C3000C104892B8A2B8B2B09F484CF0E94A90431
:100C40008090BE049090BF04A090C004B090C104F6
:100C50006C197D098E099F0986169706A806B906A4
:100C600008F070CF8091BD040E94690585E0109264
:100C7000E9041092E8041092C204DF91CF911F9111
:100C80000F91FF90EF90DF90CF90BF90AF909F902B
:100C90008F9008959D9191938F5F69CF85EEA5CF39
:100CA0008091BE049091BF04A091C004B091C10492
:100CB000892B8A2B8B2B09F49ECF0E94A9040091CB
:100CC000BE041091BF042091C0043091C1046C197E
:100CD0007D098E099F09061717072807390708F0AD
:100CE0008ACFC0CF81E0C3CF80E0C1CF82E0BFCF49
:100CF00083E0BDCF81E00C948A05CF92DF92EF9222
:100D0000FF920F931F93CF93DF93D82FC62F61329B
:100D100008F098C00E94A9046B017C018091BC047A
:100D200081116BC081E08093BC048093BB049FEF72
:100D30009093BA041092B9049C0F9093B8048093D6
:100D4000970480919704DD0FD82BD093970480915E
:100D50009604813009F078C0109296040E94A9048C
:100D60006B017C01809197048093BB008091BE044D
:100D70009091BF04A091C004B091C104892B8A2B2B
:100D80008B2BA1F00E94A9040091BE041091BF0416
:100D90002091C0043091C1046C197D098E099F090E
:100DA000061717072807390708F448C08091BC00C8
:100DB00083FDD8CF85EC8093BC000E94A9046B0111
:100DC0007C018091BC04813009F440C08091B90459
:100DD0008C1710F4C091B904E8E9F4E0A6E7B4E098
:100DE00080E08C1355C08C2FDF91CF911F910F9114
:100DF000FF90EF90DF90CF9008958091BE04909186
:100E0000BF04A091C004B091C104892B8A2B8B2B05
:100E100009F484CF0E94A9040091BE041091BF047C
:100E20002091C0043091C1046C197D098E099F097D
:100E3000061717072807390708F070CF8091BD04FF
:100E40000E946905C0E0CFCF85EEB5CF8091BE048A
:100E50009091BF04A091C004B091C104892B8A2B4A
:100E60008B2B09F4AECF0E94A9040091BE0410910F
:100E7000BF042091C0043091C1046C197D098E0912
:100E80009F09061717072807390708F09ACFD6CF0A
:100E900091919D938F5FA5CF0895E091EB04809190
:100EA000EA04E81730F4F0E0EA58FB4F808190E064
:100EB00008958FEF9FEF08959091EB048091EA04DD
:100EC0002FEF3FEF981748F4E92FF0E0EA58FB4F77
:100ED000208130E09F5F9093EB04C90108958091D9
:100EE000EA049091EB04891B990B0895CF92DF924D
:100EF000EF92FF920F931F93CF93DF937C01CB016F
:100F00008A012091C204222389F0EB016B01C40EF7
:100F1000D51ECC15DD0569F06991D701ED91FC91E5
:100F20000190F081E02DC7011995F3CF642F0E9445
:100F30000D05C801DF91CF911F910F91FF90EF90A8
:100F4000DF90CF900895CF93DF931F92CDB7DEB798
:100F500069832091C2042223F9F02091E804203211
:100F600058F021E030E0FC013383228390E080E000
:100F70000F90DF91CF9108958091E904E82FF0E080
:100F8000ED53FB4F998190838F5F8093E9048093A9
:100F9000E80481E090E0ECCF61E0CE0101960E9490
:100FA0000D05F7CFCF93DF93EB010E949F0161E026
:100FB00080E697E00E94A3076D2F80E697E00E94ED
:100FC000A3076C2F80E697E00E94A307DF91CF91E3
:100FD0000C947A06682F80E697E00C94A3071F9381
:100FE000CF93DF93EC01162F809174070E949F012D
:100FF0008D2F90E00E94EA07CE0199270E94EA0710
:10100000612F80E697E00E94A307DF91CF911F91A7
:101010000C947A06682F80E697E00C94A3074F9211
:101020005F926F927F928F929F92AF92BF92CF9278
:10103000DF92EF92FF920F931F93CF93DF9300D035
:1010400000D000D01F92CDB7DEB79A8789872A01DA
:101050003B0109831A832B833C83DC015B96BC92A2
:10106000AE925A9781E0AA94AB2809F080E0E98516
:10107000FA8583AF408251826282738289819A812C
:10108000AB81BC8184839583A683B783C086D186D8
:10109000E286F38666A577A580A991A90E940F2C08
:1010A00020E030E04AE754E40E94672B6D837E83A2
:1010B0008F839887E985FA85448655866686778684
:1010C0009B01AC0169817A818B819C810E94C62C35
:1010D0004B015C01A985BA8550968D929D92AD9287
:1010E000BC9253972D813E814F815885C701B6012F
:1010F0000E94672B6B017C01E985FA85C48AD58A39
:10110000E68AF78A808D918D019759F5A3019201A6
:1011100060E070E0CB010E94F52AA985BA851C9693
:101120006D937D938D939C931F97A501940160E02F
:1011300070E0CB010E94F52AE985FA85608B718BFE
:10114000828B938BA701960160E070E0CB010E9437
:10115000F52AA985BA8554966D937D938D939C93BA
:1011600057972A960FB6F894DEBF0FBECDBFDF911A
:10117000CF911F910F91FF90EF90DF90CF90BF9094
:10118000AF909F908F907F906F905F904F90089559
:101190002F923F924F925F926F927F928F929F9287
:1011A000AF92BF92CF92DF92EF92FF920F931F9375
:1011B000CF93DF93EC016A017B0148015901A9013A
:1011C0009801CB01B6010E94C12C87FF4FC0CAAA6B
:1011D000DBAAECAAFDAA8EAA9FAAA8AEB9AE8AADD8
:1011E000882309F443C02E8C3F8CF101408051804C
:1011F00062807380A3019201C501B8010E94622B35
:1012000087FF1AC0F10180829182A282B3828EA0F0
:101210009FA0A8A4B9A4CEA8DFA8E8ACF9ACA70108
:101220009601C501B4010E94C12C18169CF4CEA2EF
:10123000DFA2E8A6F9A61AC0A3019201C701B60170
:101240000E94C12C18161CF7F101C082D182E282E3
:10125000F382DDCFCAA8DBA8ECA8FDA8A701960100
:10126000C501B4010E94622B87FDE1CFDF91CF91D0
:101270001F910F91FF90EF90DF90CF90BF90AF90B4
:101280009F908F907F906F905F904F903F902F90A6
:10129000089590E080E00895CF93C62FFC0161830C
:1012A00080810E949F0181E090E002C0880F991F19
:1012B000CA95E2F70E940A08CF910C947A06FF9231
:1012C0000F931F93CF93DF938C01C62FF42ED52F4E
:1012D0008091B800F80181838CE08093B80064307D
:1012E00008F580E68083F80180810E949F018C2FA1
:1012F00090E0880F991F80640E940A088D2F90E06B
:101300000E94EA078F2D9D2F0E94EA070E947A060D
:10131000F80181818093B800DF91CF911F910F91E7
:10132000FF90089581E68083C450DDCF0E94A90418
:101330000E940F2C20E034E244E759E40E94672B1E
:1013400008958F929F92AF92BF92CF92DF92EF92C9
:10135000FF920F931F93CF93DF93FC01E351FF4F55
:1013600020818C0101511F4F222391F0F80110823E
:10137000118212821382DF91CF911F910F91FF9002
:10138000EF90DF90CF90BF90AF909F908F90089597
:101390006A017B01EC01F80180809180A280B3801A
:1013A000AB019601C501B4010E94622B882339F07C
:1013B000FE01E855FF4F80829182A282B382CC5514
:1013C000DF4F88809980AA80BB80A7019601C50164
:1013D000B4010E94622B87FF06C0F80180829182CF
:1013E000A282B382C8CF20E030E0A901C701B601D4
:1013F0000E94622B87FDBACFF801C082D182E282BF
:10140000F382B9CFFC0180810E949F0190E080E0CF
:101410000E940A080C947A06FC01399620E08FEFAE
:101420009FEF261791F03191832738E0AC0141708E
:10143000552796958795452B21F041E0842740EA72
:101440009427315099F72F5FECCF98278927982759
:101450000895EF92FF921F93CF93DF93EC017C01ED
:1014600089E4E80EF11CD7011C91612FCE010E9486
:101470000C0AFE01E10FF11D9187E1E0E10FEC0F95
:10148000FD2FF11D81871E5FF70110838E81823051
:10149000C8F08D81823009F473C0833009F476C0BE
:1014A000813009F079C08091C80080648093C800C1
:1014B000809105018064809305018091050180621F
:1014C00080930501D7014C9150E0BE01675F7F4FCB
:1014D0008D81843008F066C088819981DC01ED91AE
:1014E000FC910280F381E02D19958E818230C0F04D
:1014F0008D81823009F459C0833009F45BC081309A
:1015000009F05DC08091C80086FFFCCF8091050185
:101510008F7B80930501809105018F7D809305016C
:101520008D81843008F050C088819981DC01ED9173
:10153000FC910284F385E02D199597FFF5CFF70113
:1015400010820E940105FE01E75AFF4FDE01AD5AED
:10155000BF4F2D913C91620F731F811D911D6083C0
:10156000718382839383C15BDF4F88819981019668
:1015700099838883DF91CF911F91FF90EF90089519
:101580008091D00080648093D00092CF8091300110
:101590008064809330018CCF8091C0008064809300
:1015A000C00086CF8A819B8199CF8091D00086FF31
:1015B000FCCFACCF8091300186FFFCCFA7CF8091CC
:1015C000C00086FFFCCFA2CF8A819B81DC01ED9118
:1015D000FC910284F385E02D199597FFF5CFAFCFED
:1015E0004F925F926F927F928F929F92AF92BF9233
:1015F000CF92DF92EF92FF920F931F93CF93DF93DF
:10160000EC01FC01E55BFF4F84E693E0918380836E
:101610006E012DE5C20ED11C89E8D6018C938D8117
:101620008430F0F488819981DC01ED91FC91008493
:10163000F185E02D1995811116C0F12C8F2DDF91C8
:10164000CF911F910F91FF90EF90DF90CF90BF90BF
:10165000AF909F908F907F906F905F904F90089584
:101660008A819B81E1CF8E01065B1F4FF80190813B
:101670009E012B5A3F4F7901891771F080830E9498
:1016800001056B5F7F4F8F4F9F4FD7016D937D9308
:101690008D939C931397D1CF0E940105F701808011
:1016A0009180A280B380681579058A059B0528F290
:1016B000D8011C928E81823050F0809105018F7B81
:1016C00080930501809105018F7D809305018E0136
:1016D000075B1F4FF80110828D81F12C843020F1BF
:1016E0008A819B81DC01ED91FC910084F185E02DE4
:1016F0001995892BC9F18A819B81DC01ED91FC91BF
:101700000284F385E02D1995F8019081FE01E90F1F
:10171000F11D81879F5FD8019C93903408F3FF24CB
:10172000F394DECFFF24F39488819981DC01ED915D
:10173000FC910084F185E02D1995892BA9F0888111
:101740009981DC01ED91FC910284F385E02D1995DE
:10175000F8019081FE01E90FF11D81879F5FD8019B
:101760009C939034F8F6E0CFFE01E35BFF4F80815D
:101770009181019691838083FF2059F03496808176
:1017800091810196918380838DEF8887BDEFFB2E39
:1017900055CFF801F080F886F6E0FF150CF04ECF3B
:1017A00099858C81981349CFAF2CB12C6EEF6F0DBA
:1017B000CE010E940C0AF501EC0FFD1F2781308538
:1017C0002327322723272817390761F0FE01EF5A14
:1017D000FF4F80819181019691838083FF24FA9449
:1017E000F8862CCF2A85E6E8F2E08191821709F489
:1017F000D7C132E0EE38F307C1F7FE01EF5AFF4FD1
:1018000080819181019691838083FF24F3942058F5
:101810002A87FB8683E0D8018C93CE010E94290A97
:10182000DFCF8B859C85982789279827AC01F4E02A
:1018300056954795FA95E1F78D859E8598278927D6
:101840009827A4E096958795AA95E1F7840F951FB0
:10185000D6019C91981710F582E0F82ED8CF8B8591
:101860009C85982789279827E4E096958795EA959F
:10187000E1F7F6019081EECF8B859C85982789272B
:10188000E7CF8D859E859827892798274B855C858E
:10189000542745275427840F951FEBCF0E9401053D
:1018A000FE01E75AFF4FDE01AD5ABF4F2D913C912B
:1018B000620F731F811D911D6083718382839383E7
:1018C0001886EA85E150E03108F0B8CEF0E08827CC
:1018D000E359F34F8F4F0C94382D7D0C7D0CEA0C9F
:1018E000EA0C1F0D520D1E0B1E0B1E0B1E0B1E0BAA
:1018F0001E0B1E0B1E0B630DB10D8B859C8598274F
:10190000892798276D847E84762467247624A30112
:1019100073E0569547957A95E1F7242F7301F7E028
:10192000EF22FF24E114F10411F021E0240F2B87B2
:1019300023E0D8012C93680E791ED12C812C912C98
:1019400054018394F801C08068167906B9F1B50195
:10195000A4010D2C04C0440F551F661F771F0A9465
:10196000D2F7DE01AC0DB11D19965C901997FC0100
:1019700053E0F695E7955A95E1F7EE7FF170EC5953
:10198000FC4F20813181E82FEF7002C036952795FA
:10199000EA95E2F720FF0DC0452919964C93D394A0
:1019A000F7E0FD1520F4C394D801CC92D12C019618
:1019B000C9CF4095542219965C92F1CFEF2811F0CF
:1019C000C394C082D801FC90F394F394CE010E949A
:1019D000290A34CE8B859C8598278927982F2D85B9
:1019E0003E8532272327322F330F3B8733E0F80120
:1019F0003083280F3327331FD8016C9142E0F42E37
:101A0000F60EA92FB0E0A217B30704F7AA0FBB1F69
:101A1000AC59BC4FAE01460F511D11968C911197D8
:101A2000FA01818781E0860FF8018083FE01E80FCB
:101A3000F11D8C918187D801FC929F5FDDCF8B8552
:101A40009C85982789279827FC01B3E0F695E795B0
:101A5000BA95E1F7EE7FF170EC59FC4F20813181AE
:101A6000482F4F7081E090E0A0E0B0E004C0880F04
:101A7000991FAA1FBB1F4A95D2F74D854F3F69F4A6
:101A8000822B932B9183808386E0F8018083CE01A3
:101A90000E94290AE8E0FE2ED1CD80959095822300
:101AA0009323F0CFEC85F0E0EE0FFF1FEC59FC4FD5
:101AB0008D859E859827892798279183808386E046
:101AC000D8018C93E4CF8B859C859827892798270C
:101AD0002D853E85322723273227280F391FD12C09
:101AE00067E0C62E812C912C540183942817390766
:101AF00059F2FC0153E0F695E7955A95E1F7EE7F30
:101B0000F170EC59FC4F482F4F702401350104C08F
:101B1000440C551C661C771C4A95D2F7A201E08044
:101B2000F180DE01AC0DB11D1996AC91B0E00D2C29
:101B300002C0B595A7950A94E2F7A0FF0DC04E2903
:101B40005F2951834083D39447E0542E5D1410F4F1
:101B5000C394D12C0196CACF409550954E215F2158
:101B6000F0CFEC854E851D8686E0D8018C93DE0192
:101B7000F0E0EE0FFF1FEC59FC4F80E01296481783
:101B800061F01E962C911E971F969C911F97322FE5
:101B9000292F219331938F5FF1CFF801F08014CF7B
:101BA000EFEFE20FE03108F079CEF0E08827E45261
:101BB000F24F8F4F0C94382D110C110C410C410C2D
:101BC0002F0C3C0C4E0C4E0C4E0C4E0C4E0C4E0C76
:101BD0004E0C4E0C110C410C0F931F93CF93DF93BF
:101BE0008C01C4E7D7E088810E949F01812F90E09B
:101BF0000E94EA07C80199270E94EA070E947A0614
:101C000061E088810E947D061092EB048093EA04D3
:101C100080E697E00E945C07DF91CF911F910F91C2
:101C200008950F931F93CF938C010E94EC0DC82F42
:101C3000C80101960E94EC0D90E0982F88278C0F28
:101C4000911D8F3F980711F490E080E0CF911F9194
:101C50000F910895EF92FF920F931F93CF93DF930D
:101C600006E012E0D0E0C0E0D801ED91FD918D01D9
:101C7000EE0FFF1FEC59FC4FE080F180CE010E9477
:101C8000110EE816F90649F06E2DCE010E94EF07FD
:101C90006F2DCE0101960E94EF072496C83FD10513
:101CA00019F7DF91CF911F910F91FF90EF90089559
:101CB0008F929F92AF92BF92CF92DF92EF92FF925C
:101CC0000F931F93CF93DF9302E813E088EE882EE3
:101CD00083E0982E540188E1A80EB11C6801E4014C
:101CE000F601E190F1906F01CE010E94110EE8160D
:101CF000F90649F06E2DCE010E94EF076F2DCE013F
:101D000001960E94EF072496CA15DB0549F7F8E112
:101D10008F1AFCEF9F0A045F1F4F88E8881683E143
:101D20009806C1F6DF91CF911F910F91FF90EF9030
:101D3000DF90CF90BF90AF909F908F900895CF93FA
:101D4000C82F0E949F0160E080E697E00E94A307F1
:101D50000E947A0662E08C2F0E947D061092EB04AE
:101D60008093EA0480E697E00E945C07C82F80E633
:101D700097E00E945C0720E03C2FA901482BCA0194
:101D8000CF9108952F923F924F925F926F927F92E0
:101D90008F929F92AF92BF92CF92DF92EF92FF927B
:101DA0000F931F93CF93DF9300D000D0CDB7DEB752
:101DB000FC01E351FF4F20818C0100551F4F22236E
:101DC00009F1F801108211821282138260E070E042
:101DD000CB0126960FB6F894DEBF0FBECDBFDF91C4
:101DE000CF911F910F91FF90EF90DF90CF90BF9018
:101DF000AF909F908F907F906F905F904F903F90AB
:101E00002F9008959E838D83FC01E451FF4F8081C4
:101E1000882309F47BC10E94010569837A838B833F
:101E20009C83F801C080D180E280F380ED81FE8147
:101E3000E659FF4F60817181828193819B01AC01E2
:101E40000E94C62C4B015C0120E030E046E953E4DF
:101E5000C701B6010E94F52A21E23AE84FE35EE3AA
:101E60000E94C62C20E030E040ED52E40E94F62AA9
:101E70009B01AC01C501B4010E94672B4B015C01C1
:101E800020E030EF4FE755E4ED81FE81EC54FF4F49
:101E900060817181828193810E94672B9B01AC01DB
:101EA000C501B4010E94C62C4B015C01ED81FE818D
:101EB000E658FF4F2081318142815381ED81FE81BF
:101EC000EA58FF4F60817181828193810E94C62C04
:101ED0002B013C01ED81FE81E657FF4F20813181CE
:101EE00042815381C701B6010E94F52A9B01AC01D2
:101EF000C301B2010E94C62C9B01AC01C501B40113
:101F00000E94F52AED81FE81EA57FF4F2081318141
:101F1000428153810E94672B4B015C016D807E8062
:101F2000F8EB6F0E711CF3018081918169817A81D8
:101F3000681B790B072E000C880B990B0E94112C43
:101F40009B01AC01C501B4010E94C62C20E030E029
:101F50004AE754E40E94672BA70196010E94F62AE3
:101F6000F80160837183828393830E940105F301EA
:101F70006083718382839383ED81FE81E251FF4F01
:101F80008081882309F453C0F80180809180A28069
:101F9000B380ED80FE80F0EDEF0EF11C20E030E02C
:101FA000A901F70160817181828193810E94622B76
:101FB000811105C0F70180829182A282B382ED81F6
:101FC000FE81EC52FF4F4080518062807380A501FA
:101FD0009401C301B2010E94C62C4B015C01A30114
:101FE000920160E070E080E89FE30E94F52A2B01F7
:101FF0003C01F70160817181828193812BE0C22EC7
:10200000D12CA30192010E94C62CA50194010E942B
:10201000F62AF1E0CF1AD108A1F7F70160837183A6
:1020200082839383F80160837183828393830E9408
:102030000105ED81FE81E856FF4F60837183828345
:1020400093832D803E80F4E92F0E311CF101C08076
:10205000D180E280F3809B01AC012C193D094E092F
:102060005F0969017A01ED81FE81E456FF4F8081AD
:102070009181A281B3818C159D05AE05BF0508F045
:102080003FC0F80180809180A280B3802D813E8185
:102090002A593F4F3A8329834D815E8144555F4FD2
:1020A0005E834D83FA012081318142815381C501D4
:1020B000B4010E94F52A2B013C01C701B6010E9420
:1020C0000F2C20E030E04AE754E40E94672B9B018C
:1020D000AC01C301B2010E94672BE981FA816083E0
:1020E000718382839383ED81FE8180829182A282BB
:1020F000B3820E940105F10160837183828393831F
:10210000F801608171818281938163CEED80FE80D0
:10211000F4E6EF0EF11CED81FE81E257FF4F0190D6
:10212000F081E02DE031F10508F0A7C08827E456E2
:10213000FF4E8F4F0C94382DAC10AC10AC10AC107F
:102140003711371137113711391139113911391147
:102150003B113B113B113B1160E0C7010E944C0950
:10216000ED81FE8164857585636E716881850E944D
:10217000D2078BEB92E10197F1F7ED81FE8181852A
:102180000E949F0EED81FE812385022E02C096954E
:1021900087950A94E2F7222329F08115F8E09F073A
:1021A00008F0906FED81FE81978B868B6485758535
:1021B000636E716B81850E94D2078BEB92E1019770
:1021C000F1F7ED81FE8181850E949F0EED81FE81F8
:1021D0002385022E02C0969587950A94E2F7222362
:1021E00029F08115F8E09F0708F0906FED81FE81DE
:1021F000918F808FBC01990F880B990B0E94112C35
:102200004B015C01ED81FE8166897789072E000C08
:10221000880B990B0E94112C9B01AC01C501B401E4
:102220000E94672BED81FE81268537854089518983
:102230000E94C62CED81FE81E853FF4F2081318141
:10224000428153810E94C62CED81FE81E453FF4FF1
:1022500020813181428153810E94F52AF8016083F7
:10226000718382839383C7010E94020A85CE61E055
:1022700074CF62E072CF63E070CFC7010E94020AA0
:102280006FCFCF93DF93D0E0C0E0E0917007F09183
:102290007107EC0FFD1F808191810E94C20E229672
:1022A000C830D10591F7DF91CF910895CF92DF9299
:1022B000EF92FF921F93CF93DF93D0E0C0E011E045
:1022C000E0917007F0917107EC0FFD1F8081918103
:1022D0000E94C20E6B017C01609140047091410428
:1022E00090E080E00E940F2C20E030E040E251E4DA
:1022F0000E94672B9B01AC01C701B6010E94622BB3
:10230000881F8827881F18232296C830D105C1F658
:10231000812FDF91CF911F91FF90EF90DF90CF90B1
:1023200008952F923F924F925F926F927F928F9279
:102330009F92AF92BF92CF92DF92EF92FF920F9354
:102340001F93CF93DF938091FA039091FB03019742
:10235000E1F48091FC039091FD0381309105A9F097
:102360000297C9F5DF91CF911F910F91FF90EF90E8
:10237000DF90CF90BF90AF909F908F907F906F90A5
:102380005F904F903F902F9008950E9456118111B9
:10239000B5C061E083E00E944A0461E082E00E94EF
:1023A0004A0461E084E00E944A0461E085E0DF9134
:1023B000CF911F910F91FF90EF90DF90CF90BF9042
:1023C000AF909F908F907F906F905F904F903F90D5
:1023D0002F900C944A04609174047091750490E0FD
:1023E00080E00E940F2C20E030E040E251E40E94A7
:1023F000672B2B013C01312C212CE0917007F091CF
:102400007107C101880F991FE80FF91F0081118121
:10241000F801E055FF4F80809180A280B380FF9645
:10242000C080D180E280F380A7019601C301B20190
:102430000E94F62A9B01AC01C501B4010E94C12C87
:10244000E801C855DF4F181664F0A7019601C501D1
:10245000B4010E94622B181624F0C882D982EA8245
:10246000FB8288809980AA80BB80A5019401C70166
:10247000B6010E94622BC82FCC1FCC27CC1FF801BD
:10248000E451FF4F80818823B9F0A5019401C70171
:10249000B6010E94622BD801AA58BF4FF80187FFEE
:1024A00024C0EE58FF4F40815181628173814D936A
:1024B0005D936D937C9313976C2F82E02816310403
:1024C000C9F083E028163104B9F081E02816310400
:1024D00079F082E00E944A048FEF281A380A84E0DB
:1024E0002816310409F089CF3DCFE259FF4FDBCFE9
:1024F00083E0F0CF84E0EECF85E0ECCF60E083E0D6
:102500000E944A0460E082E00E944A0460E084E0A5
:102510000E944A0460E04ACFCF93DF93D0E0C0E04E
:10252000E0917007F0917107EC0FFD1F80819181A0
:10253000FC01EA58FF4FDC01AE58BF4F4D915D9151
:102540006D917C914083518362837383769710826F
:10255000EC5AFF4F1082118212821382B69760816B
:10256000683030F450E040E08E599F4F0E945F0980
:102570002296C830D105A1F6DF91CF9108952F9210
:102580003F924F925F926F927F928F929F92AF9203
:10259000BF92CF92DF92EF92FF920F931F93CF9350
:1025A000DF93CDB7DEB765970FB6F894DEBF0FBEE9
:1025B000CDBF1C821B82E0917007F09171078B8167
:1025C0009C81E80FF91FA081B181BD8BAC8BFD010F
:1025D000E351FF4F80818D01005A1F4F882349F13D
:1025E000AC54BF4FFD011082118212821382D801B8
:1025F0001C92EB81FC813296FC83EB833897D9F6F1
:1026000065960FB6F894DEBF0FBECDBFDF91CF91B8
:102610001F910F91FF90EF90DF90CF90BF90AF9000
:102620009F908F907F906F905F904F903F902F90F2
:102630000895EC89FD89B696FB8BEA8BD8018C91C5
:1026400081113FC0EC89FD89EC5BFF4F0190F08167
:10265000E02D80809180A280B380EC88FD88BCE46E
:10266000EB0EF11CF70180829182A282B382EC8989
:10267000FD89EE5BFF4F0190F081E02D808191811B
:10268000A281B381EC89FD89E05BFF4F8083918358
:10269000A283B383EC89FD89E45AFF4F40805180C7
:1026A00062807380A3019201C501B4010E94C12C14
:1026B00018160CF09BC1D7014D925D926D927C92E1
:1026C0001397E1E0D801EC938C899D890E94C20E9A
:1026D000D8018C91882309F421C10E9401056D83E2
:1026E0007E838F839887EC89FD89E85BFF4F80812B
:1026F0009181A281B3814D815E816F817885481B74
:10270000590B6A0B7B0BEC89FD89EC5AFF4F8081DA
:102710009181A281B381481759076A077B0708F4A2
:10272000FDC0EC89FD89EE5BFF4F0190F081E02D4B
:102730004080518062807380EC89FD89EA5BFF4FA5
:102740000190F081E02DA30192016081718182816D
:1027500093810E94F52A6B017C01EC89FD89E05B85
:10276000FF4F2081318142815381C301B2010E9418
:10277000F52A69877A878B879C87EC89FD8926A94A
:1027800037A940AD51ADC701B6010E94C62C0C89D6
:102790001D89045B1F4FD8012D913D914D915C9196
:1027A0000E94F62A4B015C01F80180829182A2828C
:1027B000B382EC89FD89EF59FF4F80818D878111AC
:1027C00019C0AC89BD89D2962D913D914D915C91F6
:1027D000D59769857A858B859C850E94C62C9B013F
:1027E000AC01C501B4010E94F52AF8016083718330
:1027F000828393838C899D89845B9F4F9A8389838D
:10280000DC018D919D910D90BC91A02D8E879F87AD
:10281000A88BB98BEC89FD89E45AFF4F2080318069
:10282000028113819101A801BC01CD010E94C12C3C
:1028300018160CF0F1C0C101D801E981FA8180833A
:102840009183A283B383BD85BB2309F4FFC0EC89C8
:10285000FD8922A933A944A955A9C701B6010E943F
:10286000C62C6B017C01AC89BD89DA962D913D9116
:102870004D915C91DD9769857A858B859C850E9459
:10288000C62C9B01AC01EC89FD89E45BFF4F6081A4
:102890007181828193810E94F52AA70196010E948D
:1028A000F62A6B017C019B01AC01B101C8010E94B9
:1028B000622B87FD12C0EC89FD89E85AFF4F20800A
:1028C0003180028113819101A801B601C7010E94E4
:1028D000622B87FD02C016018701EC89FD89EC5B44
:1028E000FF4F0190F081E02DC101D80180839183D9
:1028F000A283B383EC89FD89E05BFF4F4082518264
:1029000062827382EC89FD89E85BFF4F8D819E8135
:10291000AF81B88580839183A283B383EC89FD89DD
:10292000E452FF4FC080D180E280F38020E030E0AD
:1029300048EC52E4EC89FD89E052FF4F60817181DF
:10294000828193810E94F52A4B015C01A7019601C7
:10295000EC89FD89E852FF4F60817181828193810A
:102960000E94F52A9B01AC01C501B4010E94672BAE
:102970004B015C01A7019601EC89FD89E055FF4FF1
:1029800060817181828193810E94F52A9B01AC0153
:10299000C501B4010E94C62C20E030E048EC52E4AE
:1029A0000E94F62A20E030E048EC52E40E94672BB7
:1029B00020E030EF4FE755E40E94C62C6B017C010C
:1029C00020E030EF4FE755E40E94C12C0C891D89AF
:1029D00000561F4F1816F4F580E090EFAFE7B5E40E
:1029E000F80180839183A283B38343C0EC89FD897E
:1029F000E85AFF4F4080518062807380A3019201AA
:102A0000C501B4010E94622B87FF5BCEF7014082B3
:102A100051826282738255CEEC89FD89E85AFF4F5C
:102A200080809180A280B380A50194016E857F850E
:102A3000888999890E94622B87FF05CFA981BA8175
:102A40008D929D92AD92BC921397FDCEC12CD12C4C
:102A5000760109CF20E030E0A901C701B6010E944C
:102A6000622B87FD2DC0D801CD92DD92ED92FC92B4
:102A70001397D8010D911D912D913C9140E050E0AC
:102A8000BA018A899B890E94C808EC89FD89E257AE
:102A9000FF4F1081183008F0ACCDEC89FD89EC5463
:102AA000FF4F60817181828193810E94E02BAB0195
:102AB000612F8C899D898E599F4F0E945F0999CD06
:102AC0008FE692E1A3E8BAE38BCFFB0101900020EF
:102AD000E9F73197AF01461B570BDC01ED91FC91F3
:102AE0000280F381E02D19948F929F92AF92BF9252
:102AF0000F931F93CF93DF93CDB7DEB7A1970FB698
:102B0000F894DEBF0FBECDBF19A2423008F44AE0F0
:102B10008E010F5D1F4F842E912CB12CA12CA5018D
:102B200094010E94D32AE62FB901CA01EA3004F5C4
:102B3000E05DD801EE938D01232B242B252B79F713
:102B400090E080E0109729F0BD0183EC96E00E94B0
:102B50006515A1960FB6F894DEBF0FBECDBFDF910D
:102B6000CF911F910F91BF90AF909F908F9008953C
:102B7000E95CDFCF4F925F926F927F928F929F922C
:102B8000AF92BF92CF92DF92EF92FF920F931F937B
:102B9000CF936B017C01742EAC019B010E94332DFD
:102BA00062EB72E0811126C046015701E894B7F844
:102BB0002FEF3FEF4FE75FE7C501B4010E94332DD0
:102BC00081110CC02FEF3FEF4FE75FE7C501B40164
:102BD0000E94622B66EB72E0181664F02FEF3FEF55
:102BE0004FE75FE4C701B6010E94C12C1816ACF490
:102BF0006AEB72E083EC96E0CF911F910F91FF900A
:102C0000EF90DF90CF90BF90AF909F908F907F908C
:102C10006F905F904F900C9465152FEF3FEF4FE74B
:102C20005FECC701B6010E94622B87FDE1CF20E077
:102C300030E0A901C701B6010E94622B10E000E05C
:102C400087FF0AC06DE283EC96E00E9428038C01A6
:102C5000F7FAF094F7F8F094C0E060E070E080E0FC
:102C60009FE37C1641F020E030E040E251E40E9416
:102C7000672BCF5FF6CFA70196010E94F62A2B01A2
:102C80003C010E94E02B4B015C014AE00E9474155C
:102C90007C01E00EF11ECC23C1F1C501B4010E94FC
:102CA0000F2C9B01AC01C301B2010E94F52A4B011C
:102CB0005C016EE283EC96E00E942803E80EF91EA8
:102CC000C15018F120E030E040E251E4C501B40108
:102CD0000E94C62C2B013C010E94E02B4B01B12C21
:102CE000A12C4AE0C501B4010E947415E80EF91E3A
:102CF000C501B4010E940F2C9B01AC01C301B201BC
:102D00000E94F52A4B015C01DBCFC701CF911F91D7
:102D10000F91FF90EF90DF90CF90BF90AF909F907A
:102D20008F907F906F905F904F9008952F923F9279
:102D30004F925F926F927F928F929F92AF92BF92CB
:102D4000CF92DF92EF92FF920F931F93CF93DF9377
:102D500000D01F92CDB7DEB784ED97E00E94F00A55
:102D600061E085300CF460E08AE00E944A0486E766
:102D700097E00E94F00A61E085300CF460E08BE09F
:102D80000E944A040E9496092091FE023091FF029F
:102D900040910003509101030E94F52A6B017C01D0
:102DA0006091F6037091F70390E080E00E940F2C91
:102DB00020E030E040E251E40E94672B9B01AC012F
:102DC000C701B6010E94C12C87FD14C00E9496095C
:102DD0006093FE027093FF028093000390930103BF
:102DE0008091FA039091FB03019721F00E94580E05
:102DF0000E942A0E24E633E03C832B83312C212CC5
:102E0000C101880F991F9A838983E0917007F0911F
:102E10007107E80FF91F80809180F401E257FF4F9E
:102E200031822082AB81BC8192966D917C9190E041
:102E300080E00E940F2C20E030E048EC52E40E9439
:102E4000672B6B017C01EB81FC8160A171A190E09B
:102E500080E00E940F2C20E030E048EC52E40E9419
:102E6000672B2B013C01AB81BC815E966D917C91FF
:102E700090E080E00E940F2C20E030E048EC52E42B
:102E80000E94672BAB01BC01F401E454FF4F408367
:102E9000518362837383349640825182628273824B
:102EA0003496C082D182E282F382E458F109A08094
:102EB000B18093018201C40186960E940F0800919F
:102EC000700710917107E981FA81E00FF11FE0802E
:102ED000F1806701B8ECCB0ED11CEB81FC8164A1C1
:102EE00075A190E080E00E940F2C20E030E04AE7DE
:102EF00054E40E94672BD6016D937D938D939C9330
:102F000013976701BCECCB0ED11CEB81FC8166A151
:102F100077A190E080E00E940F2C20E030E040E2BA
:102F200051E40E94672BD6016D937D938D939C9302
:102F30001397EB81FC8160A571A590E080E00E9471
:102F40000F2CF701EC51FF4F6083718382839383D1
:102F5000D7011E966D937D938D939C935197B4EA00
:102F6000EB0EF11C6091F8037091F90390E080E0A2
:102F70000E940F2C20E030E040E251E40E94672BD9
:102F8000F7016083718382839383FFEF2F1A3F0AD7
:102F90002B813C81245F3F4F3C832B8334E02316FD
:102FA000310409F02DCF8091FA039091FB03019732
:102FB00009F4AAC0780160E374E09801285F3F4FEC
:102FC000F80181919191DB014D915D91BD01DC0191
:102FD000A351BF4F81E0452B09F480E08C932E175D
:102FE0003F0779F782E494E0180120916204309160
:102FF0006304232B39F02091420430914304DC0117
:103000002D933C93D1012D913D911D01DC014D91FA
:103010005D91CD01D901A251BF4F21E0452B09F4AB
:1030200020E02C93E215F30501F732E5A32E34E0FE
:10303000B32E8091620490916304892B39F08091C2
:10304000520490915304F50191838083D801CD906F
:10305000DD908D01F501619171915F01F4EDCF0E6D
:10306000D11C90E080E00E940F2C20E030E04AE785
:1030700054E40E94672BD6016D937D938D939C93AE
:10308000139720163106A9F660912804709129043F
:1030900090E080E00E940F2C20E030E040E251E41C
:1030A0000E94672B2B013C0160912604709127043C
:1030B00090E080E00E940F2C20E030E040E251E4FC
:1030C0000E94672B4B015C016091240470912504E0
:1030D00090E080E00E940F2CF701219131917F0157
:1030E000F901E052FF4F60837183828393833897A5
:1030F00080829182A282B38234964082518262821F
:1031000073822E143F0441F78091FA039091FB03E0
:10311000019711F00E94411160917404709175043F
:1031200090E080E00E940F2C20E030E040E251E48B
:103130000E94672B2B013C010EEF13E01A821982CB
:10314000E0917007F091710789819A81880F991F2A
:10315000E80FF91F20803180F101E055FF4FC0805A
:10316000D180E280F380FF9680809180A280B3803E
:10317000A3019201C501B4010E94F52A9B01AC0193
:10318000C701B6010E94C12C87FD1CC0A501940196
:10319000C301B2010E94F62A9B01AC01C701B6012E
:1031A0000E94622B181674F0F101E351FF4F8081E9
:1031B000811108C0BB24B3948091FA039091FB0362
:1031C000019709F0B12C20E030E040E251E4C70162
:1031D000B6010E94C62C0E94E02BD8016D937D930E
:1031E0008D01E981FA81E230F10509F41DC2E33075
:1031F000F10509F41FC2319709F410C261E0B11062
:1032000001C060E086E00E944A0429813A812F5F74
:103210003F4F3A8329832430310509F091CF8091C3
:10322000FC039091FD030297A9F1809170079091A2
:1032300071079A8389830EE014E07C0198E0E90E1F
:10324000F11CA981BA81ED91FD91BA83A983EC5457
:10325000FF4F20E030EF4FE755E4608171818281BC
:1032600093810E94672B20E030E048EC52E40E94FA
:10327000C62C20E030E048EC52E40E94C62C0E94AC
:10328000E02BF801619371938F0129813A81E21655
:10329000F306B9F682EE882E83E0982E10E000E067
:1032A0008FE390E09A83898380916E0490916F04FC
:1032B000892B61F588E30E9421045C0189E30E9467
:1032C00021046C018AE30E9421047C018BE30E94AB
:1032D0002104A981BA81A134B10509F4C1C1A23484
:1032E000B10509F4CDC1A034B10509F4A9C180919B
:1032F000700490917104AA94AB2821F0809172041B
:10330000909173049093E3038093E203D4016D9151
:103310007C9190E080E00E940F2C20E030E040E2C1
:1033200051E40E94672BAB01BC01E0917007F09162
:103330007107E00FF11F808191810E94A109E09146
:103340007007F0917107E00FF11F0190F081E02DFF
:10335000E151FF4F20E030E040E251E460817181B3
:10336000828193810E94C62C0E94E02BF40161931C
:1033700071934F0129813A812F5F3F4F3A8329830F
:103380000E5F1F4F2334310509F08ECF80912A0440
:1033900090912B04019709F06FC01A821982E09175
:1033A0007007F091710789819A81E80FF91F0190E8
:1033B000F081E02DE151FF4F608171818281938125
:1033C00042E00E94BA156EEB72E083EC96E00E9438
:1033D0006515E0917007F0917107A981BA81EA0F34
:1033E000FB1F0190F081E02DE055FF4F608171815E
:1033F0008281938142E00E94BA156EEB72E083EC09
:1034000096E00E946515E0917007F091710729819F
:103410003A81E20FF31F0190F081E02DEC54FF4F51
:1034200020E030EF4FE755E4608171818281938124
:103430000E94672B20E030E048EC52E40E94C62C4A
:1034400042E00E94BA156EEB72E083EC96E00E94B7
:10345000651589819A8102969A838983089709F074
:103460009ECF0E94960946E00E94BA1561EC72E078
:1034700083EC96E00E94651580916C0490916D0438
:103480008130910509F082C060E273E070936503BA
:10349000609364032CE030E030936F0320936E035D
:1034A0009093790380937803709367036093660326
:1034B00022E330E0309371032093700310927B037A
:1034C00010927A034CEA5DE05093690340936803DD
:1034D000E3E4F0E0F0937303E093720390937D03D1
:1034E00080937C0350936B0340936A03309375037E
:1034F0002093740310927F0310927E0310926D0349
:1035000010926C039093770380937603109281035B
:1035100010928003EAE0F0E0F093F503E093F40307
:103520003093250420932404709327046093260489
:1035300050932904409328043093F7032093F60313
:1035400028E833E13093F9032093F8039093FD03C7
:103550008093FC0384E893E09093410480934004BB
:10356000F0936704E093660484E690E0909383030D
:103570008093820390938F0380938E030E94580E52
:103580000E942A0E10926D0410926C0480916A04BD
:1035900090916B04892B51F010926B0410926A0485
:1035A0000E94580E0E942A0E0C940000A091020363
:1035B000B0910303BA83A983119791F486E30E9423
:1035C0002104892B69F48091FA039091FB03009701
:1035D00009F066C0E981FA81F093FB03E093FA03F6
:1035E00086E30E94210490930303809302030F90CB
:1035F0000F900F900F90DF91CF911F910F91FF903F
:10360000EF90DF90CF90BF90AF909F908F907F9082
:103610006F905F904F903F902F90089561E0B110B0
:1036200001C060E087E0EFCD61E0B11001C060E073
:1036300088E0E9CD61E0B11001C060E089E0E3CD50
:103640008091700490917104CA94CD2821F08091EA
:103650007204909173049093E5038093E40356CE33
:103660008091700490917104EA94EF2821F0809188
:103670007204909173049093E7038093E60346CE1F
:10368000019749F480917004909171049093E9033B
:103690008093E8033BCE8091720490917304F6CF3F
:1036A000019709F09DCF1092FB031092FA0398CF77
:1036B000CF92DF92EF92FF920F931F93CF93DF93FE
:1036C000C0917007D09171078E01085F1F4F80E095
:1036D000811110C0E881F981E055FF4F20E030E012
:1036E000A90160817181828193810E94622B881F70
:1036F0008827881F2296C017D10751F7882399F091
:1037000082E090E090932304809322041092FB03C4
:103710001092FA030E948C1280910403811103C05D
:1037200081E0809304030091700710917107680194
:1037300088E0C80ED11C7801C0E0C11113C0D701C8
:10374000ED91FC91E055FF4FC1E020E030E04AE709
:1037500053E460817181828193810E94C12C18168B
:103760000CF0C0E0B2E0EB0EF11CEC14FD0429F704
:1037700081E0C11133C0D1E08091FA039091FB0345
:10378000019709F4D0E0C11121C0F801C080D180B7
:10379000F601EA59FF4F20E030E048EC51E4608147
:1037A0007181828193810E94C12C18167CF4F601EC
:1037B000EC54FF4F20E030E0A901608171818281EB
:1037C00093810E94622B811101C0CD2F0E5F1F4F8C
:1037D0000E151F05C1F6CC2319F082E00E94001FD0
:1037E00087E30E942104019711F483E0F7CFDF9172
:1037F000CF911F910F91FF90EF90DF90CF900895A0
:1038000085ED8093BC008091BE049091BF04A0918F
:10381000C004B091C1040796A11DB11D23E0B69567
:10382000A795979587952A95D1F72091BC0024FDFF
:1038300003C01092BC0408954091BE045091BF048F
:103840006091C0047091C104452B462B472B69F34E
:103850000097A105B10541F025E32A95F1F7000095
:103860000197A109B109E1CF8091BD040C946905CC
:103870001F920F920FB60F9211240BB60F922F9337
:103880003F934F935F936F937F938F939F93AF93E8
:10389000BF93EF93FF938CEE94E00E940603FF9199
:1038A000EF91BF91AF919F918F917F916F915F91B8
:1038B0004F913F912F910F900BBE0F900FBE0F9025
:1038C0001F9018951F920F920FB60F9211240BB6EE
:1038D0000F922F933F934F935F936F937F938F93A9
:1038E0009F93AF93BF93EF93FF938CEE94E00E946E
:1038F0008802FF91EF91BF91AF919F918F917F913E
:103900006F915F914F913F912F910F900BBE0F9050
:103910000FBE0F901F9018951F920F920FB60F9227
:1039200011240BB60F922F933F934F935F936F9396
:103930007F938F939F93AF93BF93EF93FF9389E808
:1039400095E00E940603FF91EF91BF91AF919F9187
:103950008F917F916F915F914F913F912F910F9038
:103960000BBE0F900FBE0F901F9018951F920F92D5
:103970000FB60F9211240BB60F922F933F934F93D4
:103980005F936F937F938F939F93AF93BF93EF93C7
:10399000FF9389E895E00E948802FF91EF91BF9123
:1039A000AF919F918F917F916F915F914F913F91D7
:1039B0002F910F900BBE0F900FBE0F901F90189578
:1039C0001F920F920FB60F9211240BB60F922F93E6
:1039D0003F934F935F936F937F938F939F93AF9397
:1039E000BF93EF93FF9386E296E00E940603FF9158
:1039F000EF91BF91AF919F918F917F916F915F9167
:103A00004F913F912F910F900BBE0F900FBE0F90D3
:103A10001F9018951F920F920FB60F9211240BB69C
:103A20000F922F933F934F935F936F937F938F9357
:103A30009F93AF93BF93EF93FF9386E296E00E942C
:103A40008802FF91EF91BF91AF919F918F917F91EC
:103A50006F915F914F913F912F910F900BBE0F90FF
:103A60000FBE0F901F9018951F920F920FB60F92D6
:103A700011240BB60F922F933F934F935F936F9345
:103A80007F938F939F93AF93BF93EF93FF9383ECB9
:103A900096E00E940603FF91EF91BF91AF919F9135
:103AA0008F917F916F915F914F913F912F910F90E7
:103AB0000BBE0F900FBE0F901F9018951F920F9284
:103AC0000FB60F9211240BB60F922F933F934F9383
:103AD0005F936F937F938F939F93AF93BF93EF9376
:103AE000FF9383EC96E00E948802FF91EF91BF91D3
:103AF000AF919F918F917F916F915F914F913F9186
:103B00002F910F900BBE0F900FBE0F901F90189526
:103B10001F920F920FB60F9211242F933F938F9302
:103B20009F93AF93BF9380914C0390914D03A091CD
:103B30004E03B0914F0330914B0323E0230F2D37F9
:103B400058F50196A11DB11D20934B0380934C03A2
:103B500090934D03A0934E03B0934F038091500375
:103B600090915103A0915203B09153030196A11D6E
:103B7000B11D8093500390935103A0935203B093CF
:103B80005303BF91AF919F918F913F912F910F90D0
:103B90000FBE0F901F90189526E8230F0296A11DC7
:103BA000B11DD2CF1F920F920FB60F9211240BB6F8
:103BB0000F922F933F934F935F936F937F938F93C6
:103BC0009F93AF93BF93EF93FF938091B900887F4A
:103BD000803609F44DC008F040C0883209F4A9C00D
:103BE00028F5803109F49DC0C8F4882309F4FBC08E
:103BF000883009F496C0FF91EF91BF91AF919F91EA
:103C00008F917F916F915F914F913F912F910F9085
:103C10000BBE0F900FBE0F901F901895883109F4BE
:103C200088C0803241F78093BA0414C0803409F40C
:103C30009DC040F48033B9F38833E9F68093BA0429
:103C400085ECB0C0803509F485C0883509F496C08C
:103C5000883489F60E94001CCECF883909F48CC0C4
:103C600038F5883729F050F4883611F0803719F686
:103C700083E08093BC0410924A0357C0883809F44B
:103C80007BC0803919F0803809F0B5CF80914A03A4
:103C9000803208F071C0E0914A0381E08E0F80937A
:103CA0004A038091BB00F0E0E65DFC4F80833DC09D
:103CB000803B39F0E0F4803A09F479C0883A09F0A1
:103CC0009ACF84E08093BC041092290310922803B9
:103CD000E091E604F091E7041995809128038111A1
:103CE0000FC081E0809328031092080309C0803C34
:103CF00009F4A6CF883C09F4A3CF883B09F07BCF19
:103D0000E091290381E08E0F80932903F0E0E85FC2
:103D1000FC4F80818093BB00909129038091280300
:103D200029C0809197048093BB0085EC8093BC00F0
:103D300062CF9091B9048091B804981758F5E0913A
:103D4000B90481E08E0F8093B904F0E0E856FB4F90
:103D50008081E9CFE091B90481E08E0F8093B904AE
:103D60008091BB00F0E0E856FB4F80839091B9044E
:103D70008091B8049817C8F285E8D8CFE091B904CB
:103D800081E08E0F8093B9048091BB00F0E0E8568B
:103D9000FB4F80838091BB0481115CCF81E08093D5
:103DA000960484EA8093BC001092BC0424CF85EC76
:103DB0008093BC001092BC0480914A03803230F49E
:103DC000E0914A03F0E0E65DFC4F108260914A0307
:103DD00070E0E091E404F091E5048AE293E0199543
:103DE00010924A0308CF1092BA0434CF1F920F9258
:103DF0000FB60F9211240F900FBE0F901F901895C1
:103E0000C82F0E948C12D0E0D0932104C0932004CC
:103E100081E090E0909323048093220460E086E1A7
:103E20000E944A040E9496160E944111FBCFECEEBC
:103E3000F4E01382128288EE93E0A0E0B0E0848385
:103E40009583A683B78322E932E03183208345E35B
:103E500051E05587448744E351E05787468740E364
:103E600051E0518B408B41E351E0538B428B42E355
:103E700051E0558B448B46E351E0578B468B118EB6
:103E8000128E138E148EE9E8F5E013821282848379
:103E90009583A683B7833183208345ED50E0558712
:103EA000448744ED50E05787468740ED50E0518B02
:103EB000408B41ED50E0538B428B42ED50E0558BEF
:103EC000448B46ED50E0578B468B118E128E138E2D
:103ED000148EE6E2F6E01382128284839583A68331
:103EE000B783318320834DEC50E0558744874CECF9
:103EF00050E05787468748EC50E0518B408B49ECA7
:103F000050E0538B428B4AEC50E0558B448B4EEC87
:103F100050E0578B468B118E128E138E148EE3EC6D
:103F2000F6E01382128284839583A683B78331835C
:103F3000208325EC30E03587248724EC30E0378778
:103F4000268720EC30E0318B208B21EC30E0338B66
:103F5000228B22EC30E0358B248B26EC30E0378B43
:103F6000268B118E128E138E148EE0E6F7E01382EC
:103F7000128284839583A683B78384EA92E0918337
:103F80008083E4EDF7E091E0948383E0858382E031
:103F9000868328EE33E03093280820932708E6E74D
:103FA000F7E09483858386833093CA072093C907FB
:103FB00010927507E2E7F7E080E780831182ECE674
:103FC000F7E0118210821382128215821482089502
:103FD000CF93DF93CDB7DEB7A9970FB6F894DEBFC6
:103FE0000FBECDBF789484B5826084BD84B58160F6
:103FF00084BD85B5826085BD85B5816085BD8091B4
:104000006E00816080936E0010928100809181002B
:104010008260809381008091810081608093810023
:10402000809180008160809380008091B1008460E5
:104030008093B1008091B00081608093B000809146
:1040400091008260809391008091910081608093C3
:104050009100809190008160809390008091A100F8
:1040600082608093A1008091A10081608093A10073
:104070008091A00081608093A000809121018260E6
:1040800080932101809121018160809321018091A1
:10409000200181608093200180917A008460809368
:1040A0007A0080917A00826080937A0080917A0011
:1040B000816080937A0080917A00806880937A0092
:1040C0001092C10040E052EC61E070E083EC96E0B9
:1040D0000E94A9010E9452058091B8008093570365
:1040E0008CE08093B80080E60E949F0190E080E021
:1040F0000E94EA0790E080E00E94EA0790E080E0FA
:104100000E94EA0790E080E00E94EA0790E080E0E9
:104110000E94EA0790E080E00E94EA0790E080E0D9
:104120000E94EA0790E080E00E94EA070E947A0677
:1041300081E60E949F0190E080E00E94EA0790E003
:1041400080E00E94EA0790E080E00E94EA0790E0A9
:1041500080E00E94EA0790E080E00E94EA0790E099
:1041600080E00E94EA0790E080E00E94EA0790E089
:1041700080E00E94EA070E947A06809157038093AC
:10418000B80080E5809374070E9452058CE70E9476
:104190009F018091740790E0880F991F0E940A0880
:1041A00080E00E948A0563E08CE70E947D06109201
:1041B000EB048093EA0480E697E00E945C079A8310
:1041C000898380E697E00E945C078C0180E697E097
:1041D0000E945C0729813A8194E0220F331F9A954F
:1041E000E1F7207F3F70B80144E0759567954A95E7
:1041F000E1F76F707727262B372B3A8329832A30F4
:10420000310509F4C3C564EC72E083EC96E00E94CA
:10421000651549815A81BA01550F880B990B40E108
:104220000E94741561EC72E083EC96E00E946515C3
:104230000E94520561E086E10E94780461E086E117
:104240000E944A0468EE73E080E090E00E94CE0491
:1042500060E086E30E94780460E087E30E947804CF
:1042600060E088E30E94780460E089E30E947804BB
:1042700060E08AE30E94780460E08BE30E947804A7
:1042800061E082E00E94780461E083E00E947804AB
:1042900061E084E00E94780461E085E00E94780497
:1042A00061E086E00E94780461E087E00E94780483
:1042B00061E088E00E94780461E089E00E9478046F
:1042C00061E08AE00E94780461E08BE00E9478045B
:1042D00060ED77E080E090E00E94CE0402E813E019
:1042E00088EE93E09A838983C980DA8098E1C90EC9
:1042F000D11C780189809A80C4010E94110ED701D7
:104300008D939D937D01B4E08B0E911C8C149D04C4
:1043100099F7E981FA81E851FC4FFA83E983045F58
:104320001F4FE838F34101F706E012E0F12CE12CD1
:10433000D801ED91FD918D01FA83E983C7010E94B7
:10434000110E29813A81220F331F2C593C4FD9017C
:104350008D939C93B4E0EB0EF11CE8EFEE16F104A4
:1043600039F760ED77E080E090E00E94CE0422E82B
:1043700032E03A832983912C812C83EF90E00E94D4
:10438000402D9DA38CA3A981BA818D91BA83A98365
:1043900022E331E140E85BE3ACA1BDA12D933D9365
:1043A0004D935C9313972FE735E04BE155EB149653
:1043B0002D933D934D935C9317971D961C921E92DF
:1043C0001C9719968C93199798E01A969C931A97B4
:1043D0001B961C921B97FD0112A213A214A215A2F8
:1043E00080871D01F6E22F0E311C9D012E563F4F96
:1043F00038872F83D9018D919C91ECA1FDA1EC53BD
:10440000FF4FC080D180E280F380ECA1FDA1E05499
:10441000FF4F20813181428153812B833C834D8327
:104420005E83ECA1FDA1E454FF4F40805180628087
:104430007380ECA1FDA1EC5BFF4F2CA13DA12C549E
:104440003F4F31832083ECA1FDA1EE5BFF4F2CA1F8
:104450003DA120553F4F31832083ECA1FDA1EA5BB4
:10446000FF4F2CA13DA121513F4F31832083ECA16F
:10447000FDA1E05AFF4F1082ECA1FDA1E85AFF4FC9
:104480001082118212821382ECA1FDA1E45AFF4F27
:1044900020E030E04FE753E42083318342835383AD
:1044A000ECA1FDA1EC5AFF4F24E630E040E050E0E3
:1044B0002083318342835383ACA1BDA1DF969C93BB
:1044C0008E93DE9720E030E0A901C301B2010E9483
:1044D000622B87FD20C020E030E0A9016B817C8148
:1044E0008D819E810E94622B87FD15C020E030E007
:1044F000A901C701B6010E94622B87FD0CC0AA2446
:10450000A394B12C0B811C812D813E81B301A201AA
:10451000C1010E940F080E940105ECA1FDA1E85B0A
:10452000FF4F6CA07DA0B4E56B0E711CD3010D9103
:104530001D912D913C91601B710B820B930B60833D
:10454000718382839383ECA1FDA1EE59FF4F80918B
:1045500056039091570391838083ECA1FDA1EC5900
:10456000FF4F809172079091730791838083ECA134
:10457000FDA1EA59FF4F1082118212821382ECA131
:10458000FDA1E659FF4F20E030E040E753E42083EF
:10459000318342835383ECA1FDA1E259FF4F80E0B8
:1045A00090E0A0EAB1E480839183A283B383ECA17D
:1045B000FDA1EE58FF4F20E030E84BE355E42083A7
:1045C000318342835383ECA1FDA1EA58FF4F8083DE
:1045D0009183A283B383ECA1FDA1E658FF4F81E54F
:1045E00099E4ADE1BCE380839183A283B383ECA122
:1045F000FDA1E258FF4F23E333EF4DE654E420835F
:10460000318342835383ECA1FDA1EE57FF4F85EC2C
:1046100090E2A0EBBCE380839183A283B383ECA1FF
:10462000FDA1EA57FF4F29EA35EB43EA51E4208325
:10463000318342835383ECA1FDA1E657FF4F80E015
:1046400090E0A8EAB1E480839183A283B383AF8131
:10465000B8851D921C92ECA1FDA1EC56FF4F108273
:10466000118212821382ECA1FDA1E456FF4F2CE2CD
:1046700031E040E050E020833183428353834CA0FB
:104680005DA030EA430E511C80E090EFAFE7B5E447
:10469000F20180839183A283B383ECA1FDA1E8554D
:1046A000FF4F1082118212821382ECA1FDA1E0550E
:1046B000FF4F20E030E048EA51E420833183428319
:1046C0005383ECA1FDA1EC54FF4F108211821282A2
:1046D0001382ECA1FDA1E854FF4F108211821282D7
:1046E0001382ECA1FDA1E454FF4F108211821282CB
:1046F0001382ECA1FDA1E054FF4F108211821282BF
:104700001382ECA1FDA1EC53FF4F108211821282A3
:104710001382ECA1FDA1E853FF4F80E090E0A0E8F8
:10472000BFE380839183A283B383ECA1FDA1E45313
:10473000FF4F1082118212821382ECA1FDA1E0537F
:10474000FF4F1082118212821382ECA1FDA1EC5264
:10475000FF4F8AE097EDA3E2BCE380839183A283BD
:10476000B383ECA1FDA1EC51FF4F80E090E0A8ECF9
:10477000B4E480839183A283B383ECA1FDA1E851CB
:10478000FF4F80E090E0AAE7B4E480839183A283A6
:10479000B383ECA1FDA1E451FF4F1082ECA1FDA178
:1047A000E351FF4F1082ECA1FDA1E251FF4F1082B7
:1047B000ECA1FDA1E151FF4F108211821282138200
:1047C000ECA1FDA1E257FF4F91828082ECA1FDA1F7
:1047D000E05CFF4FA080B180C12CD12C7601970105
:1047E0008601B701A601C1010E940F08D2010D91F7
:1047F0001D912D913C91B701A601C1010E94C808ED
:10480000F30160817181828193810E940F2C9B0151
:10481000AC0160E070E080EA90E40E94672B6B01DD
:104820007C01AC019B01ACA1BDA1D6966D917D919F
:104830008D919C91D9970E94C62CECA1FDA166ABED
:1048400077AB80AF91AFA701960162AD73AD84AD38
:1048500095AD0E94672BACA1BDA1DA966D937D93B7
:104860008D939C93DD9785E090E0A0E0B0E0F301AC
:1048700080839183A283B3830E945205ACA1BDA122
:104880001D961C921E921C97B0935503A09354033F
:1048900080916E0790916F0720916C0730916D07A2
:1048A0008217930711F57C01EE0CFF1C892B09F48C
:1048B00085C2C70190936F0780936E07880F991F79
:1048C0000E94402D9C838B8300917007109171078B
:1048D000A701B8010E94652EC8010E94DC2DEB8162
:1048E000FC81F0937107E09370072091700730917D
:1048F000710780916C0790916D07AC014F5F5F4F1E
:1049000050936D0740936C074091540350915503A9
:10491000880F991F820F931FDC014D935C93BFEFAB
:104920008B1A9B0AE4E08E16910409F026CD24E64A
:1049300033E03C832B83312C212CA101440F551FE4
:104940005A834983E0917007F0917107E40FF51FD6
:1049500080809180F401E257FF4F31822082E25A39
:10496000FF4F1082AB81BC8192966D917C9190E05B
:1049700080E00E940F2C20E030E048EC52E40E94DE
:10498000672B6B017C01EB81FC8160A171A190E040
:1049900080E00E940F2C20E030E048EC52E40E94BE
:1049A000672B2B013C01AB81BC815E966D917C91A4
:1049B00090E080E00E940F2C20E030E048EC52E4D0
:1049C0000E94672BAB01BC01F401E454FF4F40830C
:1049D00051836283738334964082518262827382F0
:1049E0003496C082D182E282F382E458F109A08039
:1049F000B18093018201C40186960E940F08E09164
:104A00007007F091710729813A81E20FF31FE0806E
:104A1000F180870108531F4FAB81BC8194966D9143
:104A20007C9190E080E00E940F2C20E030E04AE78B
:104A300054E40E94672BF80160837183828393831F
:104A40000C5F1F4FAB81BC8196966D917C9190E07D
:104A500080E00E940F2C20E030E040E251E40E9410
:104A6000672BF8016083718382839383AB81BC8160
:104A700098966D917C9190E080E00E940F2CF70158
:104A8000EC51FF4F6083718382839383F7016687C4
:104A90007787808B918B085211096091F803709190
:104AA000F90390E080E00E940F2C20E030E040E22B
:104AB00051E40E94672BD8016D937D938D939C9355
:104AC000139700E010EF2FE735E440E050E0BA0123
:104AD000C70186960E94C808BFEF2B1A3B0AEB81DC
:104AE000FC813C96FC83EB83F4E02F16310409F043
:104AF00024CFA0907007B090710780E394E09501F7
:104B0000285F3F4FF50161917191DC014D915D91FD
:104B1000CD01DB01A351BF4F61E0452B09F460E0FB
:104B20006C93E217F30779F782E494E04501209152
:104B3000620430916304232B39F0209142043091B8
:104B40004304DC012D933C93D4014D915D914D01C3
:104B5000DC012D913D91CD01DA01A251BF4F41E021
:104B6000232B09F440E04C938E169F0601F792E543
:104B7000C92E94E0D92E850180916204909163043E
:104B8000892B39F08091520490915304F60191835E
:104B90008083D801ED90FD908D01F60161917191B6
:104BA0006F01F4EDEF0EF11C90E080E00E940F2CFD
:104BB00020E030E04AE754E40E94672BD7016D9370
:104BC0007D938D939C93139780169106A9F660911F
:104BD00028047091290490E080E00E940F2C20E0CE
:104BE00030E040E251E40E94672B2B013C016091D0
:104BF00026047091270490E080E00E940F2C20E0B2
:104C000030E040E251E40E94672B6B017C0160912F
:104C100024047091250490E080E00E940F2CF5019F
:104C2000219131915F01F901E052FF4F608371835F
:104C3000828393833897C082D182E282F382349652
:104C400040825182628273828A149B0441F784ED10
:104C500097E00E94090220E137E230932808209370
:104C6000270886E797E00E94090240E157E2509347
:104C7000CA074093C9070E9496168091FA03909143
:104C8000FB03019709F053C48091FC039091FD034D
:104C9000009709F096C00E94961602EE13E01A8261
:104CA0001982D8016D917D918D0190E080E00E9484
:104CB0000F2C20E030E040E251E40E94672BAB0172
:104CC000BC01E0917007F091710729813A81E20FF0
:104CD000F31F808191810E94A10949815A814E5F11
:104CE0005F4F5A83498348305105D9F60E94BF125D
:104CF0000E9491110E94581B6091F2037091F3037E
:104D000090E080E00E940F2C20E030E040E251E48F
:104D10000E94672B20E030E0A9010E94622B8823CB
:104D200041F10E9496092091600330916103409106
:104D30006203509163030E94F52A6B017C0160912C
:104D4000F2037091F30390E080E00E940F2C20E0CA
:104D500030E040E251E40E94672B9B01AC01C701A7
:104D6000B6010E94C12C181624F41092FB03109275
:104D7000FA030E94960960935C0370935D0380932D
:104D80005E0390935F030E94950377CF102F002757
:104D900000271F70082B003155E0150759F063EE0E
:104DA00072E083EC96E00E946515B801110F880B44
:104DB000990B35CA81E0809375073ACA81E090E08B
:104DC00079CD8130910509F0AFC10E9496160E94FD
:104DD000960980905C0390905D03A0905E03B09074
:104DE0005F03A50194010E94F52A6B017C0160918B
:104DF0006E0370916F0390E080E00E940F2C20E022
:104E000030E040E251E40E94672B69837B838F830B
:104E10009B8F609170037091710390E080E00E941D
:104E20000F2C20E030E040E251E40E94672B298102
:104E30003B814F815B8D0E94F62A6C8F7D8F8E8F18
:104E40009F8F609172037091730390E080E00E94E5
:104E50000F2C20E030E040E251E40E94672B2C8DC3
:104E60003D8D4E8D5F8D0E94F62A1B018C01609155
:104E700074037091750390E080E00E940F2C20E095
:104E800030E040E251E40E94672B9101A8010E94AA
:104E9000F62A68A379A38AA39BA382EE93E09FA33B
:104EA0008EA319A618A620E030E0A901C701B6011B
:104EB0000E94C12C18160CF099C129813B814F81A9
:104EC0005B8DC701B6010E94622B18160CF48EC1CF
:104ED000609164037091650390E080E00E940F2C64
:104EE00020E030E040E251E40E94672B69877A8736
:104EF0008B879C87209158033091590340915A0326
:104F000050915B032D873E874F87588B40917803E4
:104F1000509179035A8B498B60916E0370916F03A6
:104F200090E080E00E940F2C20E030E040E251E46D
:104F30000E94672B6B8B7C8B8D8B9E8B1F8A188EB0
:104F4000198E1A8EE0917007F091710788A599A5C6
:104F5000E80FF91FA081B181BDA3ACA3E989FA894B
:104F6000319709F09CC22D853E854F85588969850A
:104F70007A858B859C850E94F52A2B893C894D89F1
:104F80005E890E94672B2B013C012F89388D498D4A
:104F90005A8DC701B6010E94F52A9B01AC01C301DD
:104FA000B2010E94C62C2D853E854F8558890E94EE
:104FB000F62AAB01BC018CA19DA10E94A109E09140
:104FC0007007F091710728A539A5E20FF31F019032
:104FD000F081E02DE151FF4F20E030E040E251E46C
:104FE00060817181828193810E94C62C0E94E02B96
:104FF000AEA1BFA16D937D93BFA3AEA3E8A5F9A514
:105000003296F9A7E8A7389709F04DCF60916E0363
:1050100070916F0390E080E00E940F2C20E030E060
:1050200040E251E40E94672B6B017C0160917003A8
:105030007091710390E080E00E940F2C20E030E03E
:1050400040E251E40E94672B9B01AC01C701B6010D
:105050000E94F62A6B017C016091720370917303C8
:1050600090E080E00E940F2C20E030E040E251E42C
:105070000E94672B9B01AC01C701B6010E94F62A72
:105080006B017C01609174037091750390E080E086
:105090000E940F2C20E030E040E251E40E94672B98
:1050A0009B01AC01C701B6010E94F62A6B017C018D
:1050B000609176037091770390E080E00E940F2C5E
:1050C00020E030E040E251E40E94672B9B01AC01FC
:1050D000C701B6010E94F62A0E94D92B2B013C0180
:1050E0000E949609A50194010E94F52A6B017C019A
:1050F000C301B2010E94112C9B01AC01C701B60192
:105100000E94C12C18160CF4CFC10E94BF120E943D
:10511000581B0E949609609360037093610380930B
:105120006203909363032FCE029709F02CCE0E9466
:1051300096168EE0E82E84E0F82E912C812CE091DA
:105140007007F0917107E80DF91D208131813A83D4
:105150002983D7010D911D917D01F901E05AFF4F7F
:105160001082C9010E94C20EB80190E080E00E9446
:105170000F2C20E030E048EC52E40E94672B20E046
:1051800030E048EC52E40E94672B20E030EF4FE71C
:1051900055E40E94C62CE981FA81EC54FF4F6083EC
:1051A000718382839383E981FA81E451FF4F2081E7
:1051B000211111C0E981FA81E257FF4F10811830A7
:1051C00050F40E94E02BAB01612F89819A818E59A6
:1051D0009F4F0E945F09B2E08B0E911CE8E08E1693
:1051E000910409F0ACCF0E94581BCDCD29813B81A1
:1051F0004F815B8DC701B6010E94C12C18160CF0BF
:1052000050C02C8D3D8D4E8D5F8DC701B6010E9423
:10521000622B18160CF445C0609166037091670309
:1052200090E080E00E940F2C20E030E040E251E46A
:105230000E94672B69877A878B879C8760916403BC
:105240007091650390E080E00E940F2C20E030E038
:1052500040E251E40E94672B6D877E878F87988B91
:1052600080917A0390917B039A8B898B6091700374
:105270007091710390E080E00E940F2C20E030E0FC
:1052800040E251E40E94672B6B8B7C8B8D8B9E8B55
:1052900099819F8BAB81A88FBF81B98FEB8DEA8FEE
:1052A00051CE2C8D3D8D4E8D5F8DC701B6010E9474
:1052B000C12C18160CF04EC09101A801C701B6010F
:1052C0000E94622B18160CF445C06091680370911F
:1052D000690390E080E00E940F2C20E030E040E283
:1052E00051E40E94672B69877A878B879C8760913E
:1052F00066037091670390E080E00E940F2C20E02D
:1053000030E040E251E40E94672B6D877E878F87F3
:10531000988B20917C0330917D033A8B298B60918F
:1053200072037091730390E080E00E940F2C20E0E4
:1053300030E040E251E40E94672B6B8B7C8B8D8BBD
:105340009E8B3C8D3F8B4D8D488F5E8D598F8F8D01
:105350008A8FF8CD9101A801C701B6010E94C12C26
:1053600018160CF04CC028A139A14AA15BA1C701B5
:10537000B6010E94622B18160CF441C060916A03BA
:1053800070916B0390E080E00E940F2C20E030E0F1
:1053900040E251E40E94672B69877A878B879C875C
:1053A000609168037091690390E080E00E940F2C87
:1053B00020E030E040E251E40E94672B6D877E8759
:1053C0008F87988BA0917E03B0917F03BA8BA98BB6
:1053D000609174037091750390E080E00E940F2C3F
:1053E00020E030E040E251E40E94672B6B8B7C8B25
:1053F0008D8B9E8B2F8A388E098F1A8FA3CD28A173
:1054000039A14AA15BA1C701B6010E94C12C18169F
:105410000CF098CD60916C0370916D0390E080E08A
:105420000E940F2C20E030E040E251E40E94672B04
:1054300069877A878B879C8760916A0370916B0379
:1054400090E080E00E940F2C20E030E040E251E448
:105450000E94672B6D877E878F87988BE0918003F2
:10546000F0918103FA8BE98B609176037091770359
:1054700090E080E00E940F2C20E030E040E251E418
:105480000E94672B6B8B7C8B8D8B9E8BF8A1FF8B87
:1054900029A1288F3AA1398F4BA14A8F53CD498535
:1054A0005A856B857C8587CD0E948C120E94911154
:1054B0000E945611882351F10E94960960935C0363
:1054C00070935D0380935E0390935F03E091700798
:1054D000F09171070190F081E02DE055FF4F808140
:1054E0009181A281B3818093580390935903A09333
:1054F0005A03B0935B03809168049091690401960C
:1055000090936904809368040E949111209168042B
:1055100030916904809166049091670428173907D7
:1055200008F4F5CD1092FB031092FA03F0CD0E941F
:1055300096160E948C120E94581B0E9491110E9484
:105540009609609360037093610380936203909364
:1055500063030E94960960935C0370935D038093DC
:105560005E0390935F031092690410926804E091C7
:105570007007F09171070190F081E02DE055FF4F29
:1055800080819181A281B3818093580390935903C4
:10559000A0935A03B0935B03F6CB80917007909170
:1055A00071070C94DC2DA1E21A2EAA1BBB1BFD0176
:1055B0000DC0AA1FBB1FEE1FFF1FA217B307E407F2
:1055C000F50720F0A21BB30BE40BF50B661F771F4A
:1055D000881F991F1A9469F760957095809590952A
:1055E0009B01AC01BD01CF0108955058BB27AA27EC
:1055F0000E940D2B0C94872C0E94792C38F00E946D
:10560000802C20F039F49F3F19F426F40C94762C6A
:105610000EF4E095E7FB0C94702CE92F0E94982C77
:1056200058F3BA17620773078407950720F079F4D7
:10563000A6F50C94BA2C0EF4E0950B2EBA2FA02DE3
:105640000B01B90190010C01CA01A0011124FF272F
:10565000591B99F0593F50F4503E68F11A16F0402A
:10566000A22F232F342F4427585FF3CF4695379529
:105670002795A795F0405395C9F77EF41F16BA0BEE
:10568000620B730B840BBAF09150A1F0FF0FBB1F9C
:10569000661F771F881FC2F70EC0BA0F621F731FE5
:1056A000841F48F4879577956795B795F7959E3F42
:1056B00008F0B0CF9395880F08F09927EE0F9795D3
:1056C000879508950E944C2C08F481E008950E946B
:1056D0007B2B0C94872C0E94802C58F00E94792CF4
:1056E00040F029F45F3F29F00C94702C51110C9478
:1056F000BB2C0C94762C0E94982C68F39923B1F360
:10570000552391F3951B550BBB27AA2762177307E7
:10571000840738F09F5F5F4F220F331F441FAA1F7B
:10572000A9F335D00E2E3AF0E0E832D09150504037
:10573000E695001CCAF72BD0FE2F29D0660F771FE5
:10574000881FBB1F261737074807AB07B0E809F0CB
:10575000BB0B802DBF01FF2793585F4F3AF09E3F50
:10576000510578F00C94702C0C94BB2C5F3FE4F343
:10577000983ED4F3869577956795B795F7959F5F93
:10578000C9F7880F911D9695879597F90895E1E0DF
:10579000660F771F881FBB1F621773078407BA073E
:1057A00020F0621B730B840BBA0BEE1F88F7E09599
:1057B00008950E94E02B6894B1110C94BB2C0895BD
:1057C0000E94A02C88F09F5798F0B92F9927B751C5
:1057D000B0F0E1F0660F771F881F991F1AF0BA9595
:1057E000C9F714C0B13091F00E94BA2CB1E008950D
:1057F0000C94BA2C672F782F8827B85F39F0B93FFF
:10580000CCF3869577956795B395D9F73EF4909547
:105810008095709561957F4F8F4F9F4F0895E894C5
:1058200009C097FB3EF490958095709561957F4FE8
:105830008F4F9F4F9923A9F0F92F96E9BB27939596
:10584000F695879577956795B795F111F8CFFAF4A6
:10585000BB0F11F460FF1BC06F5F7F4F8F4F9F4FD7
:1058600016C0882311F096E911C0772321F09EE835
:10587000872F762F05C0662371F096E8862F70E09B
:1058800060E02AF09A95660F771F881FDAF7880F75
:105890009695879597F90895990F0008550FAA0BCB
:1058A000E0E8FEEF16161706E807F907C0F0121633
:1058B0001306E407F50798F0621B730B840B950B36
:1058C00039F40A2661F0232B242B252B21F408958B
:1058D0000A2609F4A140A6958FEF811D811D089528
:1058E00097F99F6780E870E060E008959FEF80EC93
:1058F000089500240A941616170618060906089536
:1059000000240A9412161306140605060895092E9B
:105910000394000C11F4882352F0BB0F40F4BF2B0A
:1059200011F460FF04C06F5F7F4F8F4F9F4F08954A
:1059300057FD9058440F551F59F05F3F71F0479540
:10594000880F97FB991F61F09F3F79F08795089525
:10595000121613061406551FF2CF4695F1DF08C044
:10596000161617061806991FF1CF86957105610561
:1059700008940895E894BB2766277727CB0197F909
:1059800008950E944C2C08F48FEF08950E94D92CA2
:105990000C94872C0E94792C38F00E94802C20F0E7
:1059A000952311F00C94702C0C94762C11240C94EB
:1059B000BB2C0E94982C70F3959FC1F3950F50E07B
:1059C000551F629FF001729FBB27F00DB11D639FB1
:1059D000AA27F00DB11DAA1F649F6627B00DA11D57
:1059E000661F829F2227B00DA11D621F739FB00DFD
:1059F000A11D621F839FA00D611D221F749F33276D
:105A0000A00D611D231F849F600D211D822F762F05
:105A10006A2F11249F5750409AF0F1F088234AF0E2
:105A2000EE0FFF1FBB1F661F771F881F915050404E
:105A3000A9F79E3F510580F00C94702C0C94BB2C60
:105A40005F3FE4F3983ED4F3869577956795B795D5
:105A5000F795E7959F5FC1F7FE2B880F911D9695EF
:105A6000879597F908950E944C2C880B990B0895FF
:105A7000EE0FFF1F881F8BBF0790F691E02D199442
:105A80000F931F93CF93DF938230910510F482E040
:105A900090E0E0913408F091350830E020E0B0E08B
:105AA000A0E0309799F42115310509F44AC0281B6C
:105AB000390B24303105D8F58A819B816115710538
:105AC00089F1FB0193838283FE0111C040815181E2
:105AD0000281138148175907E0F04817590799F4D4
